{"abi":[{"type":"constructor","inputs":[{"name":"_entranceFee","type":"uint256","internalType":"uint256"},{"name":"_feeAddress","type":"address","internalType":"address"},{"name":"_raffleDuration","type":"uint256","internalType":"uint256"}],"stateMutability":"nonpayable"},{"type":"function","name":"COMMON_RARITY","inputs":[],"outputs":[{"name":"","type":"uint256","internalType":"uint256"}],"stateMutability":"view"},{"type":"function","name":"LEGENDARY_RARITY","inputs":[],"outputs":[{"name":"","type":"uint256","internalType":"uint256"}],"stateMutability":"view"},{"type":"function","name":"RARE_RARITY","inputs":[],"outputs":[{"name":"","type":"uint256","internalType":"uint256"}],"stateMutability":"view"},{"type":"function","name":"approve","inputs":[{"name":"to","type":"address","internalType":"address"},{"name":"tokenId","type":"uint256","internalType":"uint256"}],"outputs":[],"stateMutability":"nonpayable"},{"type":"function","name":"balanceOf","inputs":[{"name":"owner","type":"address","internalType":"address"}],"outputs":[{"name":"","type":"uint256","internalType":"uint256"}],"stateMutability":"view"},{"type":"function","name":"baseURI","inputs":[],"outputs":[{"name":"","type":"string","internalType":"string"}],"stateMutability":"view"},{"type":"function","name":"changeFeeAddress","inputs":[{"name":"newFeeAddress","type":"address","internalType":"address"}],"outputs":[],"stateMutability":"nonpayable"},{"type":"function","name":"enterRaffle","inputs":[{"name":"newPlayers","type":"address[]","internalType":"address[]"}],"outputs":[],"stateMutability":"payable"},{"type":"function","name":"entranceFee","inputs":[],"outputs":[{"name":"","type":"uint256","internalType":"uint256"}],"stateMutability":"view"},{"type":"function","name":"feeAddress","inputs":[],"outputs":[{"name":"","type":"address","internalType":"address"}],"stateMutability":"view"},{"type":"function","name":"getActivePlayerIndex","inputs":[{"name":"player","type":"address","internalType":"address"}],"outputs":[{"name":"","type":"uint256","internalType":"uint256"}],"stateMutability":"view"},{"type":"function","name":"getApproved","inputs":[{"name":"tokenId","type":"uint256","internalType":"uint256"}],"outputs":[{"name":"","type":"address","internalType":"address"}],"stateMutability":"view"},{"type":"function","name":"isApprovedForAll","inputs":[{"name":"owner","type":"address","internalType":"address"},{"name":"operator","type":"address","internalType":"address"}],"outputs":[{"name":"","type":"bool","internalType":"bool"}],"stateMutability":"view"},{"type":"function","name":"name","inputs":[],"outputs":[{"name":"","type":"string","internalType":"string"}],"stateMutability":"view"},{"type":"function","name":"owner","inputs":[],"outputs":[{"name":"","type":"address","internalType":"address"}],"stateMutability":"view"},{"type":"function","name":"ownerOf","inputs":[{"name":"tokenId","type":"uint256","internalType":"uint256"}],"outputs":[{"name":"","type":"address","internalType":"address"}],"stateMutability":"view"},{"type":"function","name":"players","inputs":[{"name":"","type":"uint256","internalType":"uint256"}],"outputs":[{"name":"","type":"address","internalType":"address"}],"stateMutability":"view"},{"type":"function","name":"previousWinner","inputs":[],"outputs":[{"name":"","type":"address","internalType":"address"}],"stateMutability":"view"},{"type":"function","name":"raffleDuration","inputs":[],"outputs":[{"name":"","type":"uint256","internalType":"uint256"}],"stateMutability":"view"},{"type":"function","name":"raffleStartTime","inputs":[],"outputs":[{"name":"","type":"uint256","internalType":"uint256"}],"stateMutability":"view"},{"type":"function","name":"rarityToName","inputs":[{"name":"","type":"uint256","internalType":"uint256"}],"outputs":[{"name":"","type":"string","internalType":"string"}],"stateMutability":"view"},{"type":"function","name":"rarityToUri","inputs":[{"name":"","type":"uint256","internalType":"uint256"}],"outputs":[{"name":"","type":"string","internalType":"string"}],"stateMutability":"view"},{"type":"function","name":"refund","inputs":[{"name":"playerIndex","type":"uint256","internalType":"uint256"}],"outputs":[],"stateMutability":"nonpayable"},{"type":"function","name":"renounceOwnership","inputs":[],"outputs":[],"stateMutability":"nonpayable"},{"type":"function","name":"safeTransferFrom","inputs":[{"name":"from","type":"address","internalType":"address"},{"name":"to","type":"address","internalType":"address"},{"name":"tokenId","type":"uint256","internalType":"uint256"}],"outputs":[],"stateMutability":"nonpayable"},{"type":"function","name":"safeTransferFrom","inputs":[{"name":"from","type":"address","internalType":"address"},{"name":"to","type":"address","internalType":"address"},{"name":"tokenId","type":"uint256","internalType":"uint256"},{"name":"_data","type":"bytes","internalType":"bytes"}],"outputs":[],"stateMutability":"nonpayable"},{"type":"function","name":"selectWinner","inputs":[],"outputs":[],"stateMutability":"nonpayable"},{"type":"function","name":"setApprovalForAll","inputs":[{"name":"operator","type":"address","internalType":"address"},{"name":"approved","type":"bool","internalType":"bool"}],"outputs":[],"stateMutability":"nonpayable"},{"type":"function","name":"supportsInterface","inputs":[{"name":"interfaceId","type":"bytes4","internalType":"bytes4"}],"outputs":[{"name":"","type":"bool","internalType":"bool"}],"stateMutability":"view"},{"type":"function","name":"symbol","inputs":[],"outputs":[{"name":"","type":"string","internalType":"string"}],"stateMutability":"view"},{"type":"function","name":"tokenByIndex","inputs":[{"name":"index","type":"uint256","internalType":"uint256"}],"outputs":[{"name":"","type":"uint256","internalType":"uint256"}],"stateMutability":"view"},{"type":"function","name":"tokenIdToRarity","inputs":[{"name":"","type":"uint256","internalType":"uint256"}],"outputs":[{"name":"","type":"uint256","internalType":"uint256"}],"stateMutability":"view"},{"type":"function","name":"tokenOfOwnerByIndex","inputs":[{"name":"owner","type":"address","internalType":"address"},{"name":"index","type":"uint256","internalType":"uint256"}],"outputs":[{"name":"","type":"uint256","internalType":"uint256"}],"stateMutability":"view"},{"type":"function","name":"tokenURI","inputs":[{"name":"tokenId","type":"uint256","internalType":"uint256"}],"outputs":[{"name":"","type":"string","internalType":"string"}],"stateMutability":"view"},{"type":"function","name":"totalFees","inputs":[],"outputs":[{"name":"","type":"uint64","internalType":"uint64"}],"stateMutability":"view"},{"type":"function","name":"totalSupply","inputs":[],"outputs":[{"name":"","type":"uint256","internalType":"uint256"}],"stateMutability":"view"},{"type":"function","name":"transferFrom","inputs":[{"name":"from","type":"address","internalType":"address"},{"name":"to","type":"address","internalType":"address"},{"name":"tokenId","type":"uint256","internalType":"uint256"}],"outputs":[],"stateMutability":"nonpayable"},{"type":"function","name":"transferOwnership","inputs":[{"name":"newOwner","type":"address","internalType":"address"}],"outputs":[],"stateMutability":"nonpayable"},{"type":"function","name":"withdrawFees","inputs":[],"outputs":[],"stateMutability":"nonpayable"},{"type":"event","name":"Approval","inputs":[{"name":"owner","type":"address","indexed":true,"internalType":"address"},{"name":"approved","type":"address","indexed":true,"internalType":"address"},{"name":"tokenId","type":"uint256","indexed":true,"internalType":"uint256"}],"anonymous":false},{"type":"event","name":"ApprovalForAll","inputs":[{"name":"owner","type":"address","indexed":true,"internalType":"address"},{"name":"operator","type":"address","indexed":true,"internalType":"address"},{"name":"approved","type":"bool","indexed":false,"internalType":"bool"}],"anonymous":false},{"type":"event","name":"FeeAddressChanged","inputs":[{"name":"newFeeAddress","type":"address","indexed":false,"internalType":"address"}],"anonymous":false},{"type":"event","name":"OwnershipTransferred","inputs":[{"name":"previousOwner","type":"address","indexed":true,"internalType":"address"},{"name":"newOwner","type":"address","indexed":true,"internalType":"address"}],"anonymous":false},{"type":"event","name":"RaffleEnter","inputs":[{"name":"newPlayers","type":"address[]","indexed":false,"internalType":"address[]"}],"anonymous":false},{"type":"event","name":"RaffleRefunded","inputs":[{"name":"player","type":"address","indexed":false,"internalType":"address"}],"anonymous":false},{"type":"event","name":"Transfer","inputs":[{"name":"from","type":"address","indexed":true,"internalType":"address"},{"name":"to","type":"address","indexed":true,"internalType":"address"},{"name":"tokenId","type":"uint256","indexed":true,"internalType":"uint256"}],"anonymous":false}],"bytecode":{"object":"0x600f8054600160a01b600160e01b0319169055610100604052603560a081815290620039e860c03980516200003d91601391602090910190620004a5565b5060405180606001604052806035815260200162003a1d6035913980516200006e91601491602090910190620004a5565b50604051806060016040528060358152602001620039b36035913980516200009f91601591602090910190620004a5565b50348015620000ad57600080fd5b5060405162003a5238038062003a5283398181016040526060811015620000d357600080fd5b50805160208083015160409384015184518086018652600c81526b507570707920526166666c6560a01b8185015285518087019096526002865261282960f11b93860193909352929390929190620001326301ffc9a760e01b6200041c565b815162000147906006906020850190620004a5565b5080516200015d906007906020840190620004a5565b50620001706380ac58cd60e01b6200041c565b62000182635b5e139f60e01b6200041c565b6200019463780e9d6360e01b6200041c565b5060009050620001a3620004a1565b600a80546001600160a01b0319166001600160a01b038316908117909155604051919250906000907f8be0079c531659141344cd1fd0a4f28419497f9722a3daafe3b4186f6b6457e0908290a3506080839052600f80546001600160a01b0319166001600160a01b038416179055600c81905542600d55604660005260116020526013805462000268917f5b7f6fa27cbdd877c784e5cd6f1e7b2e2ecfccc0fd6ec81e33b8acc96c2c12c991600261010060018316150260001901909116046200053a565b506019600052601160205260148054620002b7917fbd257726630d6fa81014c2a632bd8ba73882fff9da9629e2e56f50f9e7161fcf91600260001961010060018416150201909116046200053a565b50600560005260116020526015805462000306917fc550213cee30afd5e67ccba7be3d381bbc169034ae08eb3ec9168caca9fe55e791600260001961010060018416150201909116046200053a565b5060408051808201909152600681526531b7b6b6b7b760d11b602080830191825260466000526012905290516200035f917f35f893b72ce0d9e4576e154d39495c618a5a26dd034e3e870883107ad973755f91620004a5565b506040805180820190915260048152637261726560e01b60208083019182526019600052601290529051620003b6917f799a11cccb7c7d688c679c3a3d7f03e6af337f5bda872b434ee1b298e35f586b91620004a5565b506040805180820190915260098152686c6567656e6461727960b81b6020808301918252600560005260129052905162000412917f45429b9195d4ec5c0cf6c69e9c21a4ca0ea773b702c2de5735f85d2631f2674691620004a5565b50505050620005db565b6001600160e01b031980821614156200047c576040805162461bcd60e51b815260206004820152601c60248201527f4552433136353a20696e76616c696420696e7465726661636520696400000000604482015290519081900360640190fd5b6001600160e01b0319166000908152602081905260409020805460ff19166001179055565b3390565b828054600181600116156101000203166002900490600052602060002090601f016020900481019282620004dd576000855562000528565b82601f10620004f857805160ff191683800117855562000528565b8280016001018555821562000528579182015b82811115620005285782518255916020019190600101906200050b565b5062000536929150620005c4565b5090565b828054600181600116156101000203166002900490600052602060002090601f01602090048101928262000572576000855562000528565b82601f1062000585578054855562000528565b828001600101855582156200052857600052602060002091601f016020900482015b8281111562000528578254825591600101919060010190620005a7565b5b80821115620005365760008155600101620005c5565b6080516133ae6200060560003980610d335280610ffc528061145d5280611cf152506133ae6000f3fe6080604052600436106102305760003560e01c8063649677e11161012e578063b88d4fde116100ab578063db2cea751161006f578063db2cea7514610860578063e1a0f7e714610893578063e985e9c514610936578063f2fde38b14610971578063f71d96cb146109a457610230565b8063b88d4fde14610724578063bd71a521146107f7578063bd7c40c71461080c578063c87b56dd14610821578063db2c0b911461084b57610230565b80638da5cb5b116100f25780638da5cb5b1461068057806395d89b4114610695578063970c76e1146106aa578063a22cb465146106d4578063b2f8846b1461070f57610230565b8063649677e1146105e45780636be88980146105f95780636c0360eb1461062357806370a0823114610638578063715018a61461066b57610230565b80632f745c59116101bc578063476343ee11610180578063476343ee1461053c5780634a038beb146105515780634f6ccce71461057b5780635c6059ee146105a55780636352211e146105ba57610230565b80632f745c591461048157806333a99e04146104ba5780633be539ee146104cf57806341275358146104e457806342842e0e146104f957610230565b806313114a9d1161020357806313114a9d1461038857806318160ddd146103ba57806323b872dd146103e1578063278ecde114610424578063285e14061461044e57610230565b806301ffc9a71461023557806306fdde031461027d578063081812fc14610307578063095ea7b31461034d575b600080fd5b34801561024157600080fd5b506102696004803603602081101561025857600080fd5b50356001600160e01b0319166109ce565b604080519115158252519081900360200190f35b34801561028957600080fd5b506102926109f1565b6040805160208082528351818301528351919283929083019185019080838360005b838110156102cc5781810151838201526020016102b4565b50505050905090810190601f1680156102f95780820380516001836020036101000a031916815260200191505b509250505060405180910390f35b34801561031357600080fd5b506103316004803603602081101561032a57600080fd5b5035610a87565b604080516001600160a01b039092168252519081900360200190f35b34801561035957600080fd5b506103866004803603604081101561037057600080fd5b506001600160a01b038135169060200135610ae9565b005b34801561039457600080fd5b5061039d610bc4565b6040805167ffffffffffffffff9092168252519081900360200190f35b3480156103c657600080fd5b506103cf610bdb565b60408051918252519081900360200190f35b3480156103ed57600080fd5b506103866004803603606081101561040457600080fd5b506001600160a01b03813581169160208101359091169060400135610bec565b34801561043057600080fd5b506103866004803603602081101561044757600080fd5b5035610c43565b34801561045a57600080fd5b506103866004803603602081101561047157600080fd5b50356001600160a01b0316610dc4565b34801561048d57600080fd5b506103cf600480360360408110156104a457600080fd5b506001600160a01b038135169060200135610e8c565b3480156104c657600080fd5b50610386610eb7565b3480156104db57600080fd5b506103cf611235565b3480156104f057600080fd5b5061033161123b565b34801561050557600080fd5b506103866004803603606081101561051c57600080fd5b506001600160a01b0381358116916020810135909116906040013561124a565b34801561054857600080fd5b50610386611265565b34801561055d57600080fd5b506102926004803603602081101561057457600080fd5b5035611373565b34801561058757600080fd5b506103cf6004803603602081101561059e57600080fd5b503561140e565b3480156105b157600080fd5b50610331611424565b3480156105c657600080fd5b50610331600480360360208110156105dd57600080fd5b5035611433565b3480156105f057600080fd5b506103cf61145b565b34801561060557600080fd5b506103cf6004803603602081101561061c57600080fd5b503561147f565b34801561062f57600080fd5b50610292611491565b34801561064457600080fd5b506103cf6004803603602081101561065b57600080fd5b50356001600160a01b03166114f2565b34801561067757600080fd5b5061038661155a565b34801561068c57600080fd5b50610331611618565b3480156106a157600080fd5b50610292611627565b3480156106b657600080fd5b50610292600480360360208110156106cd57600080fd5b5035611688565b3480156106e057600080fd5b50610386600480360360408110156106f757600080fd5b506001600160a01b03813516906020013515156116f0565b34801561071b57600080fd5b506103cf6117f5565b34801561073057600080fd5b506103866004803603608081101561074757600080fd5b6001600160a01b0382358116926020810135909116916040820135919081019060808101606082013564010000000081111561078257600080fd5b82018360208201111561079457600080fd5b803590602001918460018302840111640100000000831117156107b657600080fd5b91908080601f0160208091040260200160405190810160405280939291908181526020018383808284376000920191909152509295506117fb945050505050565b34801561080357600080fd5b506103cf611859565b34801561081857600080fd5b506103cf61185e565b34801561082d57600080fd5b506102926004803603602081101561084457600080fd5b5035611863565b34801561085757600080fd5b506103cf611c0c565b34801561086c57600080fd5b506103cf6004803603602081101561088357600080fd5b50356001600160a01b0316611c11565b610386600480360360208110156108a957600080fd5b8101906020810181356401000000008111156108c457600080fd5b8201836020820111156108d657600080fd5b803590602001918460208302840111640100000000831117156108f857600080fd5b919080806020026020016040519081016040528093929190818152602001838360200280828437600092019190915250929550611ced945050505050565b34801561094257600080fd5b506102696004803603604081101561095957600080fd5b506001600160a01b0381358116916020013516611ef3565b34801561097d57600080fd5b506103866004803603602081101561099457600080fd5b50356001600160a01b0316611f21565b3480156109b057600080fd5b50610331600480360360208110156109c757600080fd5b5035612036565b6001600160e01b0319811660009081526020819052604090205460ff165b919050565b60068054604080516020601f6002600019610100600188161502019095169490940493840181900481028201810190925282815260609390929091830182828015610a7d5780601f10610a5257610100808354040283529160200191610a7d565b820191906000526020600020905b815481529060010190602001808311610a6057829003601f168201915b5050505050905090565b6000610a9282612060565b610acd5760405162461bcd60e51b815260040180806020018281038252602c8152602001806131f0602c913960400191505060405180910390fd5b506000908152600460205260409020546001600160a01b031690565b6000610af482611433565b9050806001600160a01b0316836001600160a01b03161415610b475760405162461bcd60e51b815260040180806020018281038252602181526020018061327b6021913960400191505060405180910390fd5b806001600160a01b0316610b5961206d565b6001600160a01b03161480610b7a5750610b7a81610b7561206d565b611ef3565b610bb55760405162461bcd60e51b81526004018080602001828103825260388152602001806130d36038913960400191505060405180910390fd5b610bbf8383612071565b505050565b600f54600160a01b900467ffffffffffffffff1681565b6000610be760026120df565b905090565b610bfd610bf761206d565b826120ea565b610c385760405162461bcd60e51b81526004018080602001828103825260318152602001806132cc6031913960400191505060405180910390fd5b610bbf83838361218e565b6000600b8281548110610c5257fe5b60009182526020918290200154604080516001600160a01b0390921680835290519093507fcada6d5a24d75e568453894e32683a8a5e6421131f8df496749af47c49a93287929181900390910190a16001600160a01b0381163314610ce85760405162461bcd60e51b8152600401808060200182810382526027815260200180612f716027913960400191505060405180910390fd5b6001600160a01b038116610d2d5760405162461bcd60e51b815260040180806020018281038252603681526020018061321c6036913960400191505060405180910390fd5b610d57337f00000000000000000000000000000000000000000000000000000000000000006122da565b6000600b8381548110610d6657fe5b60009182526020918290200180546001600160a01b0319166001600160a01b03938416179055604080519284168352517fcada6d5a24d75e568453894e32683a8a5e6421131f8df496749af47c49a932879281900390910190a15050565b610dcc61206d565b6001600160a01b0316610ddd611618565b6001600160a01b031614610e38576040805162461bcd60e51b815260206004820181905260248201527f4f776e61626c653a2063616c6c6572206973206e6f7420746865206f776e6572604482015290519081900360640190fd5b600f80546001600160a01b0383166001600160a01b0319909116811790915560408051918252517fd1e93c69f2847f79bfa4d71704aaa84a581729b4b1706d922ee42ba1848a45c99181900360200190a150565b6001600160a01b0382166000908152600160205260408120610eae90836123bf565b90505b92915050565b600c54600d5401421015610f12576040805162461bcd60e51b815260206004820152601c60248201527f5075707079526166666c653a20526166666c65206e6f74206f76657200000000604482015290519081900360640190fd5b600b5460041115610f545760405162461bcd60e51b815260040180806020018281038252602481526020018061332e6024913960400191505060405180910390fd5b600b54604080513360601b6020808301919091524260348301524460548084019190915283518084039091018152607490920190925280519101206000919081610f9a57fe5b069050610fd0604051806040016040528060118152602001702da4a1ae903bb4b73732b924b73232bc1d60791b815250826123cb565b6000600b8281548110610fdf57fe5b6000918252602082200154600b546001600160a01b0390911692507f000000000000000000000000000000000000000000000000000000000000000002906064605083020490506000606460148402600f805467ffffffffffffffff600160a01b8083048216959094049485011690920267ffffffffffffffff60a01b1990921691909117905590506000611072610bdb565b905060006064334460405160200180836001600160a01b031660601b8152601401828152602001925050506040516020818303038152906040528051906020012060001c816110bd57fe5b0690506110e6604051806040016040528060048152602001632920a91d60e11b815250826123cb565b6046811161110557600082815260106020526040902060469055611137565b605f811161112457600082815260106020526040902060199055611137565b6000828152601060205260409020600590555b611143600b6000612ef8565b42600d908155600e80546001600160a01b0319166001600160a01b038916179055604080518082019091529081526c5b49435d205072697a6520697360981b602082015261119190856123cb565b6040516000906001600160a01b0388169086908381818185875af1925050503d80600081146111dc576040519150601f19603f3d011682016040523d82523d6000602084013e6111e1565b606091505b50509050806112215760405162461bcd60e51b815260040180806020018281038252603081526020018061329c6030913960400191505060405180910390fd5b61122b8784612479565b5050505050505050565b600d5481565b600f546001600160a01b031681565b610bbf838383604051806020016040528060008152506117fb565b600f54600160a01b900467ffffffffffffffff1647146112b65760405162461bcd60e51b815260040180806020018281038252603081526020018061315e6030913960400191505060405180910390fd5b600f805467ffffffffffffffff60a01b19811690915560405167ffffffffffffffff600160a01b830416916000916001600160a01b039091169083908381818185875af1925050503d806000811461132a576040519150601f19603f3d011682016040523d82523d6000602084013e61132f565b606091505b505090508061136f5760405162461bcd60e51b8152600401808060200182810382526024815260200180612f4d6024913960400191505060405180910390fd5b5050565b60116020908152600091825260409182902080548351601f6002600019610100600186161502019093169290920491820184900484028101840190945280845290918301828280156114065780601f106113db57610100808354040283529160200191611406565b820191906000526020600020905b8154815290600101906020018083116113e957829003601f168201915b505050505081565b60008061141c600284612493565b509392505050565b600e546001600160a01b031681565b6000610eb18260405180606001604052806029815260200161313560299139600291906124af565b7f000000000000000000000000000000000000000000000000000000000000000081565b60106020526000908152604090205481565b60098054604080516020601f6002600019610100600188161502019095169490940493840181900481028201810190925282815260609390929091830182828015610a7d5780601f10610a5257610100808354040283529160200191610a7d565b60006001600160a01b0382166115395760405162461bcd60e51b815260040180806020018281038252602a81526020018061310b602a913960400191505060405180910390fd5b6001600160a01b0382166000908152600160205260409020610eb1906120df565b61156261206d565b6001600160a01b0316611573611618565b6001600160a01b0316146115ce576040805162461bcd60e51b815260206004820181905260248201527f4f776e61626c653a2063616c6c6572206973206e6f7420746865206f776e6572604482015290519081900360640190fd5b600a546040516000916001600160a01b0316907f8be0079c531659141344cd1fd0a4f28419497f9722a3daafe3b4186f6b6457e0908390a3600a80546001600160a01b0319169055565b600a546001600160a01b031690565b60078054604080516020601f6002600019610100600188161502019095169490940493840181900481028201810190925282815260609390929091830182828015610a7d5780601f10610a5257610100808354040283529160200191610a7d565b60126020908152600091825260409182902080548351601f6002600019610100600186161502019093169290920491820184900484028101840190945280845290918301828280156114065780601f106113db57610100808354040283529160200191611406565b6116f861206d565b6001600160a01b0316826001600160a01b0316141561175e576040805162461bcd60e51b815260206004820152601960248201527f4552433732313a20617070726f766520746f2063616c6c657200000000000000604482015290519081900360640190fd5b806005600061176b61206d565b6001600160a01b03908116825260208083019390935260409182016000908120918716808252919093529120805460ff1916921515929092179091556117af61206d565b6001600160a01b03167f17307eab39ab6107e8899845ad3d59bd9653f200f220920489ca2b5937696c318360405180821515815260200191505060405180910390a35050565b600c5481565b61180c61180661206d565b836120ea565b6118475760405162461bcd60e51b81526004018080602001828103825260318152602001806132cc6031913960400191505060405180910390fd5b611853848484846124c6565b50505050565b604681565b600581565b606061186e82612060565b6118a95760405162461bcd60e51b815260040180806020018281038252602c81526020018061301d602c913960400191505060405180910390fd5b6000828152601060209081526040808320548084526011835281842080548351601f6002600019610100600186161502019093169290920491820186900486028101860190945280845291949390919083018282801561194a5780601f1061191f5761010080835404028352916020019161194a565b820191906000526020600020905b81548152906001019060200180831161192d57829003601f168201915b50505060008581526012602090815260408083208054825160026001831615610100026000190190921691909104601f8101859004850282018501909352828152969750929594509192508301828280156119e65780601f106119bb576101008083540402835291602001916119e6565b820191906000526020600020905b8154815290600101906020018083116119c957829003601f168201915b505050505090506119f5612518565b611b53611a006109f1565b83856040516020018080683d913730b6b2911d1160b91b81525060090184805190602001908083835b60208310611a485780518252601f199092019160209182019101611a29565b6001836020036101000a038019825116818451168082178552505050505050905001806133526027913960270160316132fd823960310183805190602001908083835b60208310611aaa5780518252601f199092019160209182019101611a8b565b51815160209384036101000a60001901801990921691161790526c3eae96101134b6b0b3b2911d1160991b919093019081528451600d90910192850191508083835b60208310611b0b5780518252601f199092019160209182019101611aec565b6001836020036101000a0380198251168184511680821785525050505050509050018061227d60f01b815250600201935050505060405160208183030381529060405261254f565b6040516020018083805190602001908083835b60208310611b855780518252601f199092019160209182019101611b66565b51815160209384036101000a600019018019909216911617905285519190930192850191508083835b60208310611bcd5780518252601f199092019160209182019101611bae565b6001836020036101000a038019825116818451168082178552505050505050905001925050506040516020818303038152906040529350505050919050565b601981565b6000805b600b54811015611c9f57826001600160a01b0316600b8281548110611c3657fe5b6000918252602090912001546001600160a01b03161415611c9757611c906040518060400160405280601981526020017f466f756e6420706c6179657220617420696e6465783a20256400000000000000815250826123cb565b90506109ec565b600101611c15565b506040805162461bcd60e51b815260206004820152601e60248201527f5075707079526166666c653a20506c61796572206e6f74206163746976650000604482015290519081900360640190fd5b80517f0000000000000000000000000000000000000000000000000000000000000000023414611d4e5760405162461bcd60e51b815260040180806020018281038252602d815260200180612ff0602d913960400191505060405180910390fd5b60005b8151811015611dad57600b828281518110611d6857fe5b60209081029190910181015182546001808201855560009485529290932090920180546001600160a01b0319166001600160a01b039093169290921790915501611d51565b5060005b600b5460001901811015611e7a57600181015b600b54811015611e7157600b8181548110611ddb57fe5b600091825260209091200154600b80546001600160a01b039092169184908110611e0157fe5b6000918252602090912001546001600160a01b03161415611e69576040805162461bcd60e51b815260206004820152601d60248201527f5075707079526166666c653a204475706c696361746520706c61796572000000604482015290519081900360640190fd5b600101611dc4565b50600101611db1565b507fb1c4333d548c772fcf6cf94ff4113aa3d3efcdbedd89953b15a30752b94e3582816040518080602001828103825283818151815260200191508051906020019060200280838360005b83811015611edd578181015183820152602001611ec5565b505050509050019250505060405180910390a150565b6001600160a01b03918216600090815260056020908152604080832093909416825291909152205460ff1690565b611f2961206d565b6001600160a01b0316611f3a611618565b6001600160a01b031614611f95576040805162461bcd60e51b815260206004820181905260248201527f4f776e61626c653a2063616c6c6572206973206e6f7420746865206f776e6572604482015290519081900360640190fd5b6001600160a01b038116611fda5760405162461bcd60e51b8152600401808060200182810382526026815260200180612fca6026913960400191505060405180910390fd5b600a546040516001600160a01b038084169216907f8be0079c531659141344cd1fd0a4f28419497f9722a3daafe3b4186f6b6457e090600090a3600a80546001600160a01b0319166001600160a01b0392909216919091179055565b600b818154811061204657600080fd5b6000918252602090912001546001600160a01b0316905081565b6000610eb160028361269b565b3390565b600081815260046020526040902080546001600160a01b0319166001600160a01b03841690811790915581906120a682611433565b6001600160a01b03167f8c5be1e5ebec7d5bd14f71427d1e84f3dd0314c0f7b2291e5b200ac8c7c3b92560405160405180910390a45050565b6000610eb1826126a7565b60006120f582612060565b6121305760405162461bcd60e51b815260040180806020018281038252602c8152602001806130a7602c913960400191505060405180910390fd5b600061213b83611433565b9050806001600160a01b0316846001600160a01b031614806121765750836001600160a01b031661216b84610a87565b6001600160a01b0316145b8061218657506121868185611ef3565b949350505050565b826001600160a01b03166121a182611433565b6001600160a01b0316146121e65760405162461bcd60e51b81526004018080602001828103825260298152602001806132526029913960400191505060405180910390fd5b6001600160a01b03821661222b5760405162461bcd60e51b81526004018080602001828103825260248152602001806130496024913960400191505060405180910390fd5b612236838383610bbf565b612241600082612071565b6001600160a01b038316600090815260016020526040902061226390826126ab565b506001600160a01b038216600090815260016020526040902061228690826126b7565b50612293600282846126c3565b5080826001600160a01b0316846001600160a01b03167fddf252ad1be2c89b69c2b068fc378daa952ba7f163c4a11628f55a4df523b3ef60405160405180910390a4505050565b8047101561232f576040805162461bcd60e51b815260206004820152601d60248201527f416464726573733a20696e73756666696369656e742062616c616e6365000000604482015290519081900360640190fd5b6040516000906001600160a01b0384169083908381818185875af1925050503d806000811461237a576040519150601f19603f3d011682016040523d82523d6000602084013e61237f565b606091505b5050905080610bbf5760405162461bcd60e51b815260040180806020018281038252603a81526020018061306d603a913960400191505060405180910390fd5b6000610eae83836126d9565b61136f82826040516024018080602001838152602001828103825284818151815260200191508051906020019080838360005b838110156124165781810151838201526020016123fe565b50505050905090810190601f1680156124435780820380516001836020036101000a031916815260200191505b5060408051601f198184030181529190526020810180516001600160e01b03166309710a9d60e41b179052935061273d92505050565b61136f828260405180602001604052806000815250612757565b60008080806124a286866127a9565b9097909650945050505050565b60006124bc848484612824565b90505b9392505050565b6124d184848461218e565b6124dd848484846128ee565b6118535760405162461bcd60e51b8152600401808060200182810382526032815260200180612f986032913960400191505060405180910390fd5b60408051808201909152601d81527f646174613a6170706c69636174696f6e2f6a736f6e3b6261736536342c000000602082015290565b606081516000141561257057506040805160208101909152600081526109ec565b600060405180606001604052806040815260200161318e6040913990506000600384516002018161259d57fe5b04600402905060008160200167ffffffffffffffff811180156125bf57600080fd5b506040519080825280601f01601f1916602001820160405280156125ea576020820181803683370190505b509050818152600183018586518101602084015b81831015612656576003830192508251603f8160121c168501518253600182019150603f81600c1c168501518253600182019150603f8160061c168501518253600182019150603f81168501518253506001016125fe565b60038951066001811461267057600281146126815761268d565b613d3d60f01b60011983015261268d565b603d60f81b6000198301525b509398975050505050505050565b6000610eae8383612a56565b5490565b6000610eae8383612a6e565b6000610eae8383612b34565b60006124bc84846001600160a01b038516612b7e565b8154600090821061271b5760405162461bcd60e51b8152600401808060200182810382526022815260200180612f2b6022913960400191505060405180910390fd5b82600001828154811061272a57fe5b9060005260206000200154905092915050565b6127548161274c612c15612c36565b63ffffffff16565b50565b6127618383612c39565b61276e60008484846128ee565b610bbf5760405162461bcd60e51b8152600401808060200182810382526032815260200180612f986032913960400191505060405180910390fd5b8154600090819083106127ed5760405162461bcd60e51b81526004018080602001828103825260228152602001806131ce6022913960400191505060405180910390fd5b60008460000184815481106127fe57fe5b906000526020600020906002020190508060000154816001015492509250509250929050565b600082815260018401602052604081205482816128bf5760405162461bcd60e51b81526004018080602001828103825283818151815260200191508051906020019080838360005b8381101561288457818101518382015260200161286c565b50505050905090810190601f1680156128b15780820380516001836020036101000a031916815260200191505b509250505060405180910390fd5b508460000160018203815481106128d257fe5b9060005260206000209060020201600101549150509392505050565b6000612902846001600160a01b0316612d67565b61290e57506001612186565b6000612a1c630a85bd0160e11b61292361206d565b88878760405160240180856001600160a01b03168152602001846001600160a01b0316815260200183815260200180602001828103825283818151815260200191508051906020019080838360005b8381101561298a578181015183820152602001612972565b50505050905090810190601f1680156129b75780820380516001836020036101000a031916815260200191505b5095505050505050604051602081830303815290604052906001600160e01b0319166020820180516001600160e01b038381831617835250505050604051806060016040528060328152602001612f98603291396001600160a01b0388169190612d6d565b90506000818060200190516020811015612a3557600080fd5b50516001600160e01b031916630a85bd0160e11b1492505050949350505050565b60009081526001919091016020526040902054151590565b60008181526001830160205260408120548015612b2a5783546000198083019190810190600090879083908110612aa157fe5b9060005260206000200154905080876000018481548110612abe57fe5b600091825260208083209091019290925582815260018981019092526040902090840190558654879080612aee57fe5b60019003818190600052602060002001600090559055866001016000878152602001908152602001600020600090556001945050505050610eb1565b6000915050610eb1565b6000612b408383612a56565b612b7657508154600181810184556000848152602080822090930184905584548482528286019093526040902091909155610eb1565b506000610eb1565b600082815260018401602052604081205480612be35750506040805180820182528381526020808201848152865460018181018955600089815284812095516002909302909501918255915190820155865486845281880190925292909120556124bf565b82856000016001830381548110612bf657fe5b90600052602060002090600202016001018190555060009150506124bf565b80516a636f6e736f6c652e6c6f67602083016000808483855afa5050505050565b90565b6001600160a01b038216612c94576040805162461bcd60e51b815260206004820181905260248201527f4552433732313a206d696e7420746f20746865207a65726f2061646472657373604482015290519081900360640190fd5b612c9d81612060565b15612cef576040805162461bcd60e51b815260206004820152601c60248201527f4552433732313a20746f6b656e20616c7265616479206d696e74656400000000604482015290519081900360640190fd5b612cfb60008383610bbf565b6001600160a01b0382166000908152600160205260409020612d1d90826126b7565b50612d2a600282846126c3565b5060405181906001600160a01b038416906000907fddf252ad1be2c89b69c2b068fc378daa952ba7f163c4a11628f55a4df523b3ef908290a45050565b3b151590565b60606124bc848460008585612d8185612d67565b612dd2576040805162461bcd60e51b815260206004820152601d60248201527f416464726573733a2063616c6c20746f206e6f6e2d636f6e7472616374000000604482015290519081900360640190fd5b600080866001600160a01b031685876040518082805190602001908083835b60208310612e105780518252601f199092019160209182019101612df1565b6001836020036101000a03801982511681845116808217855250505050505090500191505060006040518083038185875af1925050503d8060008114612e72576040519150601f19603f3d011682016040523d82523d6000602084013e612e77565b606091505b5091509150612e87828286612e92565b979650505050505050565b60608315612ea15750816124bf565b825115612eb15782518084602001fd5b60405162461bcd60e51b815260206004820181815284516024840152845185939192839260440191908501908083836000831561288457818101518382015260200161286c565b508054600082559060005260206000209081019061275491905b80821115612f265760008155600101612f12565b509056fe456e756d657261626c655365743a20696e646578206f7574206f6620626f756e64735075707079526166666c653a204661696c656420746f20776974686472617720666565735075707079526166666c653a204f6e6c792074686520706c617965722063616e20726566756e644552433732313a207472616e7366657220746f206e6f6e20455243373231526563656976657220696d706c656d656e7465724f776e61626c653a206e6577206f776e657220697320746865207a65726f20616464726573735075707079526166666c653a204d7573742073656e6420656e6f75676820746f20656e74657220726166666c655075707079526166666c653a2055524920717565727920666f72206e6f6e6578697374656e7420746f6b656e4552433732313a207472616e7366657220746f20746865207a65726f2061646472657373416464726573733a20756e61626c6520746f2073656e642076616c75652c20726563697069656e74206d617920686176652072657665727465644552433732313a206f70657261746f7220717565727920666f72206e6f6e6578697374656e7420746f6b656e4552433732313a20617070726f76652063616c6c6572206973206e6f74206f776e6572206e6f7220617070726f76656420666f7220616c6c4552433732313a2062616c616e636520717565727920666f7220746865207a65726f20616464726573734552433732313a206f776e657220717565727920666f72206e6f6e6578697374656e7420746f6b656e5075707079526166666c653a205468657265206172652063757272656e746c7920706c617965727320616374697665214142434445464748494a4b4c4d4e4f505152535455565758595a6162636465666768696a6b6c6d6e6f707172737475767778797a303132333435363738392b2f456e756d657261626c654d61703a20696e646578206f7574206f6620626f756e64734552433732313a20617070726f76656420717565727920666f72206e6f6e6578697374656e7420746f6b656e5075707079526166666c653a20506c6179657220616c726561647920726566756e6465642c206f72206973206e6f74206163746976654552433732313a207472616e73666572206f6620746f6b656e2074686174206973206e6f74206f776e4552433732313a20617070726f76616c20746f2063757272656e74206f776e65725075707079526166666c653a204661696c656420746f2073656e64207072697a6520706f6f6c20746f2077696e6e65724552433732313a207472616e736665722063616c6c6572206973206e6f74206f776e6572206e6f7220617070726f7665642261747472696275746573223a205b7b2274726169745f74797065223a2022726172697479222c202276616c7565223a205075707079526166666c653a204e656564206174206c65617374203420706c6179657273222c20226465736372697074696f6e223a22416e2061646f7261626c6520707570707921222c20a2646970667358221220c7b536cf2fc09e437c1976f35d8118a66a9796b5602e38c7095af532ef30494764736f6c63430007060033697066733a2f2f516d597836477359414b6e4e7a5a3941364e76454b56396e66315661447a4a727144523233593859536b65624c55697066733a2f2f516d5373595278334c7044416231475a516d377a5a314175485a6a6662506b44364a3773397234317875316d6638697066733a2f2f516d55506a41444647454b6d666f686454614e635768703756476b323668356a5844413776335674546e544c6357","linkReferences":{}},"methodIdentifiers":{"COMMON_RARITY()":"bd71a521","LEGENDARY_RARITY()":"bd7c40c7","RARE_RARITY()":"db2c0b91","approve(address,uint256)":"095ea7b3","balanceOf(address)":"70a08231","baseURI()":"6c0360eb","changeFeeAddress(address)":"285e1406","enterRaffle(address[])":"e1a0f7e7","entranceFee()":"649677e1","feeAddress()":"41275358","getActivePlayerIndex(address)":"db2cea75","getApproved(uint256)":"081812fc","isApprovedForAll(address,address)":"e985e9c5","name()":"06fdde03","owner()":"8da5cb5b","ownerOf(uint256)":"6352211e","players(uint256)":"f71d96cb","previousWinner()":"5c6059ee","raffleDuration()":"b2f8846b","raffleStartTime()":"3be539ee","rarityToName(uint256)":"970c76e1","rarityToUri(uint256)":"4a038beb","refund(uint256)":"278ecde1","renounceOwnership()":"715018a6","safeTransferFrom(address,address,uint256)":"42842e0e","safeTransferFrom(address,address,uint256,bytes)":"b88d4fde","selectWinner()":"33a99e04","setApprovalForAll(address,bool)":"a22cb465","supportsInterface(bytes4)":"01ffc9a7","symbol()":"95d89b41","tokenByIndex(uint256)":"4f6ccce7","tokenIdToRarity(uint256)":"6be88980","tokenOfOwnerByIndex(address,uint256)":"2f745c59","tokenURI(uint256)":"c87b56dd","totalFees()":"13114a9d","totalSupply()":"18160ddd","transferFrom(address,address,uint256)":"23b872dd","transferOwnership(address)":"f2fde38b","withdrawFees()":"476343ee"},"id":38}