{"abi":[{"type":"constructor","inputs":[{"name":"_entranceFee","type":"uint256","internalType":"uint256"},{"name":"_feeAddress","type":"address","internalType":"address"},{"name":"_raffleDuration","type":"uint256","internalType":"uint256"}],"stateMutability":"nonpayable"},{"type":"function","name":"COMMON_RARITY","inputs":[],"outputs":[{"name":"","type":"uint256","internalType":"uint256"}],"stateMutability":"view"},{"type":"function","name":"LEGENDARY_RARITY","inputs":[],"outputs":[{"name":"","type":"uint256","internalType":"uint256"}],"stateMutability":"view"},{"type":"function","name":"RARE_RARITY","inputs":[],"outputs":[{"name":"","type":"uint256","internalType":"uint256"}],"stateMutability":"view"},{"type":"function","name":"approve","inputs":[{"name":"to","type":"address","internalType":"address"},{"name":"tokenId","type":"uint256","internalType":"uint256"}],"outputs":[],"stateMutability":"nonpayable"},{"type":"function","name":"balanceOf","inputs":[{"name":"owner","type":"address","internalType":"address"}],"outputs":[{"name":"","type":"uint256","internalType":"uint256"}],"stateMutability":"view"},{"type":"function","name":"baseURI","inputs":[],"outputs":[{"name":"","type":"string","internalType":"string"}],"stateMutability":"view"},{"type":"function","name":"changeFeeAddress","inputs":[{"name":"newFeeAddress","type":"address","internalType":"address"}],"outputs":[],"stateMutability":"nonpayable"},{"type":"function","name":"enterRaffle","inputs":[{"name":"newPlayers","type":"address[]","internalType":"address[]"}],"outputs":[],"stateMutability":"payable"},{"type":"function","name":"entranceFee","inputs":[],"outputs":[{"name":"","type":"uint256","internalType":"uint256"}],"stateMutability":"view"},{"type":"function","name":"feeAddress","inputs":[],"outputs":[{"name":"","type":"address","internalType":"address"}],"stateMutability":"view"},{"type":"function","name":"getActivePlayerIndex","inputs":[{"name":"player","type":"address","internalType":"address"}],"outputs":[{"name":"","type":"uint256","internalType":"uint256"}],"stateMutability":"view"},{"type":"function","name":"getApproved","inputs":[{"name":"tokenId","type":"uint256","internalType":"uint256"}],"outputs":[{"name":"","type":"address","internalType":"address"}],"stateMutability":"view"},{"type":"function","name":"isApprovedForAll","inputs":[{"name":"owner","type":"address","internalType":"address"},{"name":"operator","type":"address","internalType":"address"}],"outputs":[{"name":"","type":"bool","internalType":"bool"}],"stateMutability":"view"},{"type":"function","name":"name","inputs":[],"outputs":[{"name":"","type":"string","internalType":"string"}],"stateMutability":"view"},{"type":"function","name":"owner","inputs":[],"outputs":[{"name":"","type":"address","internalType":"address"}],"stateMutability":"view"},{"type":"function","name":"ownerOf","inputs":[{"name":"tokenId","type":"uint256","internalType":"uint256"}],"outputs":[{"name":"","type":"address","internalType":"address"}],"stateMutability":"view"},{"type":"function","name":"players","inputs":[{"name":"","type":"uint256","internalType":"uint256"}],"outputs":[{"name":"","type":"address","internalType":"address"}],"stateMutability":"view"},{"type":"function","name":"previousWinner","inputs":[],"outputs":[{"name":"","type":"address","internalType":"address"}],"stateMutability":"view"},{"type":"function","name":"raffleDuration","inputs":[],"outputs":[{"name":"","type":"uint256","internalType":"uint256"}],"stateMutability":"view"},{"type":"function","name":"raffleStartTime","inputs":[],"outputs":[{"name":"","type":"uint256","internalType":"uint256"}],"stateMutability":"view"},{"type":"function","name":"rarityToName","inputs":[{"name":"","type":"uint256","internalType":"uint256"}],"outputs":[{"name":"","type":"string","internalType":"string"}],"stateMutability":"view"},{"type":"function","name":"rarityToUri","inputs":[{"name":"","type":"uint256","internalType":"uint256"}],"outputs":[{"name":"","type":"string","internalType":"string"}],"stateMutability":"view"},{"type":"function","name":"refund","inputs":[{"name":"playerIndex","type":"uint256","internalType":"uint256"}],"outputs":[],"stateMutability":"nonpayable"},{"type":"function","name":"renounceOwnership","inputs":[],"outputs":[],"stateMutability":"nonpayable"},{"type":"function","name":"safeTransferFrom","inputs":[{"name":"from","type":"address","internalType":"address"},{"name":"to","type":"address","internalType":"address"},{"name":"tokenId","type":"uint256","internalType":"uint256"}],"outputs":[],"stateMutability":"nonpayable"},{"type":"function","name":"safeTransferFrom","inputs":[{"name":"from","type":"address","internalType":"address"},{"name":"to","type":"address","internalType":"address"},{"name":"tokenId","type":"uint256","internalType":"uint256"},{"name":"_data","type":"bytes","internalType":"bytes"}],"outputs":[],"stateMutability":"nonpayable"},{"type":"function","name":"selectWinner","inputs":[],"outputs":[],"stateMutability":"nonpayable"},{"type":"function","name":"setApprovalForAll","inputs":[{"name":"operator","type":"address","internalType":"address"},{"name":"approved","type":"bool","internalType":"bool"}],"outputs":[],"stateMutability":"nonpayable"},{"type":"function","name":"supportsInterface","inputs":[{"name":"interfaceId","type":"bytes4","internalType":"bytes4"}],"outputs":[{"name":"","type":"bool","internalType":"bool"}],"stateMutability":"view"},{"type":"function","name":"symbol","inputs":[],"outputs":[{"name":"","type":"string","internalType":"string"}],"stateMutability":"view"},{"type":"function","name":"tokenByIndex","inputs":[{"name":"index","type":"uint256","internalType":"uint256"}],"outputs":[{"name":"","type":"uint256","internalType":"uint256"}],"stateMutability":"view"},{"type":"function","name":"tokenIdToRarity","inputs":[{"name":"","type":"uint256","internalType":"uint256"}],"outputs":[{"name":"","type":"uint256","internalType":"uint256"}],"stateMutability":"view"},{"type":"function","name":"tokenOfOwnerByIndex","inputs":[{"name":"owner","type":"address","internalType":"address"},{"name":"index","type":"uint256","internalType":"uint256"}],"outputs":[{"name":"","type":"uint256","internalType":"uint256"}],"stateMutability":"view"},{"type":"function","name":"tokenURI","inputs":[{"name":"tokenId","type":"uint256","internalType":"uint256"}],"outputs":[{"name":"","type":"string","internalType":"string"}],"stateMutability":"view"},{"type":"function","name":"totalFees","inputs":[],"outputs":[{"name":"","type":"uint64","internalType":"uint64"}],"stateMutability":"view"},{"type":"function","name":"totalSupply","inputs":[],"outputs":[{"name":"","type":"uint256","internalType":"uint256"}],"stateMutability":"view"},{"type":"function","name":"transferFrom","inputs":[{"name":"from","type":"address","internalType":"address"},{"name":"to","type":"address","internalType":"address"},{"name":"tokenId","type":"uint256","internalType":"uint256"}],"outputs":[],"stateMutability":"nonpayable"},{"type":"function","name":"transferOwnership","inputs":[{"name":"newOwner","type":"address","internalType":"address"}],"outputs":[],"stateMutability":"nonpayable"},{"type":"function","name":"withdrawFees","inputs":[],"outputs":[],"stateMutability":"nonpayable"},{"type":"event","name":"Approval","inputs":[{"name":"owner","type":"address","indexed":true,"internalType":"address"},{"name":"approved","type":"address","indexed":true,"internalType":"address"},{"name":"tokenId","type":"uint256","indexed":true,"internalType":"uint256"}],"anonymous":false},{"type":"event","name":"ApprovalForAll","inputs":[{"name":"owner","type":"address","indexed":true,"internalType":"address"},{"name":"operator","type":"address","indexed":true,"internalType":"address"},{"name":"approved","type":"bool","indexed":false,"internalType":"bool"}],"anonymous":false},{"type":"event","name":"FeeAddressChanged","inputs":[{"name":"newFeeAddress","type":"address","indexed":false,"internalType":"address"}],"anonymous":false},{"type":"event","name":"OwnershipTransferred","inputs":[{"name":"previousOwner","type":"address","indexed":true,"internalType":"address"},{"name":"newOwner","type":"address","indexed":true,"internalType":"address"}],"anonymous":false},{"type":"event","name":"RaffleEnter","inputs":[{"name":"newPlayers","type":"address[]","indexed":false,"internalType":"address[]"}],"anonymous":false},{"type":"event","name":"RaffleRefunded","inputs":[{"name":"player","type":"address","indexed":false,"internalType":"address"}],"anonymous":false},{"type":"event","name":"Transfer","inputs":[{"name":"from","type":"address","indexed":true,"internalType":"address"},{"name":"to","type":"address","indexed":true,"internalType":"address"},{"name":"tokenId","type":"uint256","indexed":true,"internalType":"uint256"}],"anonymous":false}],"bytecode":{"object":"0x60a06040526000600f60146101000a81548167ffffffffffffffff021916908367ffffffffffffffff16021790555060405180606001604052806035815260200162005a5860359139601360005090805190602001906200006292919062000678565b5060405180606001604052806035815260200162005a8d60359139601460005090805190602001906200009792919062000678565b5060405180606001604052806035815260200162005a236035913960156000509080519060200190620000cc92919062000678565b50348015620000db5760006000fd5b5060405162005ac238038062005ac283398181016040526060811015620001025760006000fd5b810190808051906020019092919080519060200190929190805190602001909291905050505b5b6040518060400160405280600c81526020017f507570707920526166666c6500000000000000000000000000000000000000008152602001506040518060400160405280600281526020017f50520000000000000000000000000000000000000000000000000000000000008152602001505b5b620001b56301ffc9a760e01b6200055760201b60201c565b5b8160066000509080519060200190620001d192919062000678565b508060076000509080519060200190620001ed92919062000678565b50620002066380ac58cd60e01b6200055760201b60201c565b6200021e635b5e139f60e01b6200055760201b60201c565b6200023663780e9d6360e01b6200055760201b60201c565b5b505060006200024b6200066a60201b60201c565b905080600a60006101000a81548173ffffffffffffffffffffffffffffffffffffffff021916908373ffffffffffffffffffffffffffffffffffffffff1602179055508073ffffffffffffffffffffffffffffffffffffffff16600073ffffffffffffffffffffffffffffffffffffffff167f8be0079c531659141344cd1fd0a4f28419497f9722a3daafe3b4186f6b6457e060405160405180910390a3505b826080818152602001505081600f60006101000a81548173ffffffffffffffffffffffffffffffffffffffff021916908373ffffffffffffffffffffffffffffffffffffffff16021790555080600c60005081909090555042600d6000508190909055506013600050601160005060006046815260200190815260200160002060005090805460018160011615610100020316600290046200038f92919062000714565b50601460005060116000506000601981526020019081526020016000206000509080546001816001161561010002031660029004620003d092919062000714565b506015600050601160005060006005815260200190815260200160002060005090805460018160011615610100020316600290046200041192919062000714565b506040518060400160405280600681526020017f636f6d6d6f6e0000000000000000000000000000000000000000000000000000815260200150601260005060006046815260200190815260200160002060005090805190602001906200047a92919062000678565b506040518060400160405280600481526020017f726172650000000000000000000000000000000000000000000000000000000081526020015060126000506000601981526020019081526020016000206000509080519060200190620004e392919062000678565b506040518060400160405280600981526020017f6c6567656e646172790000000000000000000000000000000000000000000000815260200150601260005060006005815260200190815260200160002060005090805190602001906200054c92919062000678565b505b505050620007d8565b63ffffffff60e01b817bffffffffffffffffffffffffffffffffffffffffffffffffffffffff191614151515620005f9576040517f08c379a000000000000000000000000000000000000000000000000000000000815260040180806020018281038252601c8152602001807f4552433136353a20696e76616c696420696e746572666163652069640000000081526020015060200191505060405180910390fd5b600160006000506000837bffffffffffffffffffffffffffffffffffffffffffffffffffffffff19167bffffffffffffffffffffffffffffffffffffffffffffffffffffffff1916815260200190815260200160002060006101000a81548160ff0219169083151502179055505b50565b600033905062000675565b90565b828054600181600116156101000203166002900490600052602060002090601f016020900481019282620006b0576000855562000701565b82601f10620006cb57805160ff191683800117855562000701565b8280016001018555821562000701579182015b82811115620007005782518260005090905591602001919060010190620006de565b5b509050620007109190620007b2565b5090565b828054600181600116156101000203166002900490600052602060002090601f0160209004810192826200074c57600085556200079f565b82601f106200075f57805485556200079f565b828001600101855582156200079f57600052602060002091601f016020900482015b828111156200079e57825482559160010191906001019062000781565b5b509050620007ae9190620007b2565b5090565b620007b8565b80821115620007d45760008181506000905550600101620007b8565b5090565b60805161522162000802600039806116a75280611af052806121035280612e6252506152216000f3fe6080604052600436106102345760003560e01c8063649677e11161012e578063b88d4fde116100ab578063db2cea751161006f578063db2cea7514610ea8578063e1a0f7e714610f0f578063e985e9c514610fcf578063f2fde38b14611058578063f71d96cb146110ab57610234565b8063b88d4fde14610c52578063bd71a52114610d6d578063bd7c40c714610d99578063c87b56dd14610dc5578063db2c0b9114610e7c57610234565b80638da5cb5b116100f25780638da5cb5b14610a3c57806395d89b4114610a7e578063970c76e114610b10578063a22cb46514610bc7578063b2f8846b14610c2657610234565b8063649677e1146108ae5780636be88980146108da5780636c0360eb1461092b57806370a08231146109bd578063715018a614610a2457610234565b80632f745c59116101bc578063476343ee11610180578063476343ee146106e55780634a038beb146106fd5780634f6ccce7146107b45780635c6059ee146108055780636352211e1461084757610234565b80632f745c591461057157806333a99e04146105e25780633be539ee146105fa578063412753581461062657806342842e0e1461066857610234565b806313114a9d1161020357806313114a9d1461040257806318160ddd1461043857806323b872dd14610464578063278ecde1146104e1578063285e14061461051e57610234565b806301ffc9a71461023a57806306fdde03146102ac578063081812fc1461033e578063095ea7b3146103a557610234565b60006000fd5b3480156102475760006000fd5b506102946004803603602081101561025f5760006000fd5b8101908080357bffffffffffffffffffffffffffffffffffffffffffffffffffffffff19169060200190929190505050611112565b60405180821515815260200191505060405180910390f35b3480156102b95760006000fd5b506102c2611182565b6040518080602001828103825283818151815260200191508051906020019080838360005b838110156103035780820151818401525b6020810190506102e7565b50505050905090810190601f1680156103305780820380516001836020036101000a031916815260200191505b509250505060405180910390f35b34801561034b5760006000fd5b50610379600480360360208110156103635760006000fd5b810190808035906020019092919050505061122c565b604051808273ffffffffffffffffffffffffffffffffffffffff16815260200191505060405180910390f35b3480156103b25760006000fd5b50610400600480360360408110156103ca5760006000fd5b81019080803573ffffffffffffffffffffffffffffffffffffffff169060200190929190803590602001909291905050506112d7565b005b34801561040f5760006000fd5b5061041861143e565b604051808267ffffffffffffffff16815260200191505060405180910390f35b3480156104455760006000fd5b5061044e611458565b6040518082815260200191505060405180910390f35b3480156104715760006000fd5b506104df600480360360608110156104895760006000fd5b81019080803573ffffffffffffffffffffffffffffffffffffffff169060200190929190803573ffffffffffffffffffffffffffffffffffffffff16906020019092919080359060200190929190505050611479565b005b3480156104ee5760006000fd5b5061051c600480360360208110156105065760006000fd5b8101908080359060200190929190505050611504565b005b34801561052b5760006000fd5b5061056f600480360360208110156105435760006000fd5b81019080803573ffffffffffffffffffffffffffffffffffffffff16906020019092919050505061179b565b005b34801561057e5760006000fd5b506105cc600480360360408110156105965760006000fd5b81019080803573ffffffffffffffffffffffffffffffffffffffff169060200190929190803590602001909291905050506118ee565b6040518082815260200191505060405180910390f35b3480156105ef5760006000fd5b506105f8611954565b005b3480156106075760006000fd5b50610610611db0565b6040518082815260200191505060405180910390f35b3480156106335760006000fd5b5061063c611db9565b604051808273ffffffffffffffffffffffffffffffffffffffff16815260200191505060405180910390f35b3480156106755760006000fd5b506106e36004803603606081101561068d5760006000fd5b81019080803573ffffffffffffffffffffffffffffffffffffffff169060200190929190803573ffffffffffffffffffffffffffffffffffffffff16906020019092919080359060200190929190505050611ddf565b005b3480156106f25760006000fd5b506106fb611e09565b005b34801561070a5760006000fd5b50610738600480360360208110156107225760006000fd5b8101908080359060200190929190505050611fbc565b6040518080602001828103825283818151815260200191508051906020019080838360005b838110156107795780820151818401525b60208101905061075d565b50505050905090810190601f1680156107a65780820380516001836020036101000a031916815260200191505b509250505060405180910390f35b3480156107c15760006000fd5b506107ef600480360360208110156107d95760006000fd5b810190808035906020019092919050505061206f565b6040518082815260200191505060405180910390f35b3480156108125760006000fd5b5061081b61209c565b604051808273ffffffffffffffffffffffffffffffffffffffff16815260200191505060405180910390f35b3480156108545760006000fd5b506108826004803603602081101561086c5760006000fd5b81019080803590602001909291905050506120c2565b604051808273ffffffffffffffffffffffffffffffffffffffff16815260200191505060405180910390f35b3480156108bb5760006000fd5b506108c4612101565b6040518082815260200191505060405180910390f35b3480156108e75760006000fd5b50610915600480360360208110156108ff5760006000fd5b8101908080359060200190929190505050612125565b6040518082815260200191505060405180910390f35b3480156109385760006000fd5b50610941612140565b6040518080602001828103825283818151815260200191508051906020019080838360005b838110156109825780820151818401525b602081019050610966565b50505050905090810190601f1680156109af5780820380516001836020036101000a031916815260200191505b509250505060405180910390f35b3480156109ca5760006000fd5b50610a0e600480360360208110156109e25760006000fd5b81019080803573ffffffffffffffffffffffffffffffffffffffff1690602001909291905050506121ea565b6040518082815260200191505060405180910390f35b348015610a315760006000fd5b50610a3a6122d5565b005b348015610a495760006000fd5b50610a52612458565b604051808273ffffffffffffffffffffffffffffffffffffffff16815260200191505060405180910390f35b348015610a8b5760006000fd5b50610a94612487565b6040518080602001828103825283818151815260200191508051906020019080838360005b83811015610ad55780820151818401525b602081019050610ab9565b50505050905090810190601f168015610b025780820380516001836020036101000a031916815260200191505b509250505060405180910390f35b348015610b1d5760006000fd5b50610b4b60048036036020811015610b355760006000fd5b8101908080359060200190929190505050612531565b6040518080602001828103825283818151815260200191508051906020019080838360005b83811015610b8c5780820151818401525b602081019050610b70565b50505050905090810190601f168015610bb95780820380516001836020036101000a031916815260200191505b509250505060405180910390f35b348015610bd45760006000fd5b50610c2460048036036040811015610bec5760006000fd5b81019080803573ffffffffffffffffffffffffffffffffffffffff1690602001909291908035151590602001909291905050506125e4565b005b348015610c335760006000fd5b50610c3c6127b8565b6040518082815260200191505060405180910390f35b348015610c5f5760006000fd5b50610d6b60048036036080811015610c775760006000fd5b81019080803573ffffffffffffffffffffffffffffffffffffffff169060200190929190803573ffffffffffffffffffffffffffffffffffffffff1690602001909291908035906020019092919080359060200190640100000000811115610cdf5760006000fd5b820183602082011115610cf25760006000fd5b80359060200191846001830284011164010000000083111715610d155760006000fd5b91908080601f016020809104026020016040519081016040528093929190818152602001838380828437600081840152601f19601f820116905080830192505050505050509090919290909192905050506127c1565b005b348015610d7a5760006000fd5b50610d8361284e565b6040518082815260200191505060405180910390f35b348015610da65760006000fd5b50610daf612853565b6040518082815260200191505060405180910390f35b348015610dd25760006000fd5b50610e0060048036036020811015610dea5760006000fd5b8101908080359060200190929190505050612858565b6040518080602001828103825283818151815260200191508051906020019080838360005b83811015610e415780820151818401525b602081019050610e25565b50505050905090810190601f168015610e6e5780820380516001836020036101000a031916815260200191505b509250505060405180910390f35b348015610e895760006000fd5b50610e92612cf8565b6040518082815260200191505060405180910390f35b348015610eb55760006000fd5b50610ef960048036036020811015610ecd5760006000fd5b81019080803573ffffffffffffffffffffffffffffffffffffffff169060200190929190505050612cfd565b6040518082815260200191505060405180910390f35b610fcd60048036036020811015610f265760006000fd5b8101908080359060200190640100000000811115610f445760006000fd5b820183602082011115610f575760006000fd5b80359060200191846020830284011164010000000083111715610f7a5760006000fd5b919080806020026020016040519081016040528093929190818152602001838360200280828437600081840152601f19601f82011690508083019250505050505050909091929090919290505050612e5e565b005b348015610fdc5760006000fd5b5061104060048036036040811015610ff45760006000fd5b81019080803573ffffffffffffffffffffffffffffffffffffffff169060200190929190803573ffffffffffffffffffffffffffffffffffffffff169060200190929190505050613166565b60405180821515815260200191505060405180910390f35b3480156110655760006000fd5b506110a96004803603602081101561107d5760006000fd5b81019080803573ffffffffffffffffffffffffffffffffffffffff169060200190929190505050613205565b005b3480156110b85760006000fd5b506110e6600480360360208110156110d05760006000fd5b810190808035906020019092919050505061340f565b604051808273ffffffffffffffffffffffffffffffffffffffff16815260200191505060405180910390f35b600060006000506000837bffffffffffffffffffffffffffffffffffffffffffffffffffffffff19167bffffffffffffffffffffffffffffffffffffffffffffffffffffffff1916815260200190815260200160002060009054906101000a900460ff16905061117d565b919050565b606060066000508054600181600116156101000203166002900480601f01602080910402602001604051908101604052809291908181526020018280546001816001161561010002031660029004801561121d5780601f106111f25761010080835404028352916020019161121d565b820191906000526020600020905b81548152906001019060200180831161120057829003601f168201915b50505050509050611229565b90565b600061123d8261345563ffffffff16565b1515611294576040517f08c379a000000000000000000000000000000000000000000000000000000000815260040180806020018281038252602c815260200180615063602c913960400191505060405180910390fd5b6004600050600083815260200190815260200160002060009054906101000a900473ffffffffffffffffffffffffffffffffffffffff1690506112d2565b919050565b60006112e8826120c263ffffffff16565b90508073ffffffffffffffffffffffffffffffffffffffff168373ffffffffffffffffffffffffffffffffffffffff1614151515611371576040517f08c379a00000000000000000000000000000000000000000000000000000000081526004018080602001828103825260218152602001806150ee6021913960400191505060405180910390fd5b8073ffffffffffffffffffffffffffffffffffffffff1661139661347a63ffffffff16565b73ffffffffffffffffffffffffffffffffffffffff1614806113d157506113d0816113c561347a63ffffffff16565b61316663ffffffff16565b5b1515611428576040517f08c379a0000000000000000000000000000000000000000000000000000000008152600401808060200182810382526038815260200180614f466038913960400191505060405180910390fd5b611438838361348763ffffffff16565b505b5050565b600f60149054906101000a900467ffffffffffffffff1681565b600061146f600260005061354a909063ffffffff16565b9050611476565b90565b61149661148a61347a63ffffffff16565b8261356d63ffffffff16565b15156114ed576040517f08c379a000000000000000000000000000000000000000000000000000000000815260040180806020018281038252603181526020018061513f6031913960400191505060405180910390fd5b6114fe83838361368163ffffffff16565b5b505050565b6000600b6000508281548110151561151857fe5b906000526020600020900160005b9054906101000a900473ffffffffffffffffffffffffffffffffffffffff1690507fcada6d5a24d75e568453894e32683a8a5e6421131f8df496749af47c49a9328781604051808273ffffffffffffffffffffffffffffffffffffffff16815260200191505060405180910390a13373ffffffffffffffffffffffffffffffffffffffff168173ffffffffffffffffffffffffffffffffffffffff1614151561161a576040517f08c379a0000000000000000000000000000000000000000000000000000000008152600401808060200182810382526027815260200180614dbe6027913960400191505060405180910390fd5b600073ffffffffffffffffffffffffffffffffffffffff168173ffffffffffffffffffffffffffffffffffffffff16141515156116a2576040517f08c379a000000000000000000000000000000000000000000000000000000000815260040180806020018281038252603681526020018061508f6036913960400191505060405180910390fd5b6116eb7f00000000000000000000000000000000000000000000000000000000000000003373ffffffffffffffffffffffffffffffffffffffff166138ea90919063ffffffff16565b6000600b600050838154811015156116ff57fe5b906000526020600020900160005b6101000a81548173ffffffffffffffffffffffffffffffffffffffff021916908373ffffffffffffffffffffffffffffffffffffffff1602179055507fcada6d5a24d75e568453894e32683a8a5e6421131f8df496749af47c49a9328781604051808273ffffffffffffffffffffffffffffffffffffffff16815260200191505060405180910390a1505b50565b6117a961347a63ffffffff16565b73ffffffffffffffffffffffffffffffffffffffff166117cd61245863ffffffff16565b73ffffffffffffffffffffffffffffffffffffffff1614151561185b576040517f08c379a00000000000000000000000000000000000000000000000000000000081526004018080602001828103825260208152602001807f4f776e61626c653a2063616c6c6572206973206e6f7420746865206f776e657281526020015060200191505060405180910390fd5b80600f60006101000a81548173ffffffffffffffffffffffffffffffffffffffff021916908373ffffffffffffffffffffffffffffffffffffffff1602179055507fd1e93c69f2847f79bfa4d71704aaa84a581729b4b1706d922ee42ba1848a45c981604051808273ffffffffffffffffffffffffffffffffffffffff16815260200191505060405180910390a15b5b50565b600061194782600160005060008673ffffffffffffffffffffffffffffffffffffffff1673ffffffffffffffffffffffffffffffffffffffff168152602001908152602001600020600050613a2e90919063ffffffff16565b905061194e565b92915050565b600c60005054600d600050540142101515156119db576040517f08c379a000000000000000000000000000000000000000000000000000000000815260040180806020018281038252601c8152602001807f5075707079526166666c653a20526166666c65206e6f74206f7665720000000081526020015060200191505060405180910390fd5b6004600b6000508054905010151515611a3f576040517f08c379a00000000000000000000000000000000000000000000000000000000081526004018080602001828103825260248152602001806151a16024913960400191505060405180910390fd5b6000600b60005080549050334244604051602001808473ffffffffffffffffffffffffffffffffffffffff1660601b815260140183815260200182815260200193505050506040516020818303038152906040528051906020012060001c811515611aa657fe5b0690506000600b60005082815481101515611abd57fe5b906000526020600020900160005b9054906101000a900473ffffffffffffffffffffffffffffffffffffffff16905060007f0000000000000000000000000000000000000000000000000000000000000000600b600050805490500290506000606460508302811515611b2c57fe5b0490506000606460148402811515611b4057fe5b04905080600f60149054906101000a900467ffffffffffffffff1601600f60146101000a81548167ffffffffffffffff021916908367ffffffffffffffff1602179055506000611b9461145863ffffffff16565b9050600060643344604051602001808373ffffffffffffffffffffffffffffffffffffffff1660601b8152601401828152602001925050506040516020818303038152906040528051906020012060001c811515611bee57fe5b069050604681111515611c2157604660106000506000848152602001908152602001600020600050819090905550611c77565b601960460181111515611c5457601960106000506000848152602001908152602001600020600050819090905550611c76565b6005601060005060008481526020019081526020016000206000508190909055505b5b600b6000611c859190614d2f565b42600d60005081909090555085600e60006101000a81548173ffffffffffffffffffffffffffffffffffffffff021916908373ffffffffffffffffffffffffffffffffffffffff16021790555060008673ffffffffffffffffffffffffffffffffffffffff1685604051808050600001905060006040518083038185875af1925050503d8060008114611d34576040519150601f19603f3d011682016040523d82523d6000602084013e611d39565b606091505b50509050801515611d95576040517f08c379a000000000000000000000000000000000000000000000000000000000815260040180806020018281038252603081526020018061510f6030913960400191505060405180910390fd5b611da58784613a5663ffffffff16565b50505050505050505b565b600d6000505481565b600f60009054906101000a900473ffffffffffffffffffffffffffffffffffffffff1681565b611e03838383604051806020016040528060008152602001506127c163ffffffff16565b5b505050565b600f60149054906101000a900467ffffffffffffffff1667ffffffffffffffff1647141515611e83576040517f08c379a0000000000000000000000000000000000000000000000000000000008152600401808060200182810382526030815260200180614fd16030913960400191505060405180910390fd5b6000600f60149054906101000a900467ffffffffffffffff1667ffffffffffffffff1690506000600f60146101000a81548167ffffffffffffffff021916908367ffffffffffffffff1602179055506000600f60009054906101000a900473ffffffffffffffffffffffffffffffffffffffff1673ffffffffffffffffffffffffffffffffffffffff1682604051808050600001905060006040518083038185875af1925050503d8060008114611f56576040519150601f19603f3d011682016040523d82523d6000602084013e611f5b565b606091505b50509050801515611fb7576040517f08c379a0000000000000000000000000000000000000000000000000000000008152600401808060200182810382526024815260200180614d9a6024913960400191505060405180910390fd5b50505b565b60116000506020528060005260406000206000915090508054600181600116156101000203166002900480601f0160208091040260200160405190810160405280929190818152602001828054600181600116156101000203166002900480156120675780601f1061203c57610100808354040283529160200191612067565b820191906000526020600020905b81548152906001019060200180831161204a57829003601f168201915b505050505081565b6000600061208a836002600050613a7e90919063ffffffff16565b5090508091505061209756505b919050565b600e60009054906101000a900473ffffffffffffffffffffffffffffffffffffffff1681565b60006120f582604051806060016040528060298152602001614fa8602991396002600050613abf9092919063ffffffff16565b90506120fc565b919050565b7f000000000000000000000000000000000000000000000000000000000000000081565b60106000506020528060005260406000206000915090505481565b606060096000508054600181600116156101000203166002900480601f0160208091040260200160405190810160405280929190818152602001828054600181600116156101000203166002900480156121db5780601f106121b0576101008083540402835291602001916121db565b820191906000526020600020905b8154815290600101906020018083116121be57829003601f168201915b505050505090506121e7565b90565b6000600073ffffffffffffffffffffffffffffffffffffffff168273ffffffffffffffffffffffffffffffffffffffff1614151515612274576040517f08c379a000000000000000000000000000000000000000000000000000000000815260040180806020018281038252602a815260200180614f7e602a913960400191505060405180910390fd5b6122c9600160005060008473ffffffffffffffffffffffffffffffffffffffff1673ffffffffffffffffffffffffffffffffffffffff168152602001908152602001600020600050613aec909063ffffffff16565b90506122d0565b919050565b6122e361347a63ffffffff16565b73ffffffffffffffffffffffffffffffffffffffff1661230761245863ffffffff16565b73ffffffffffffffffffffffffffffffffffffffff16141515612395576040517f08c379a00000000000000000000000000000000000000000000000000000000081526004018080602001828103825260208152602001807f4f776e61626c653a2063616c6c6572206973206e6f7420746865206f776e657281526020015060200191505060405180910390fd5b600073ffffffffffffffffffffffffffffffffffffffff16600a60009054906101000a900473ffffffffffffffffffffffffffffffffffffffff1673ffffffffffffffffffffffffffffffffffffffff167f8be0079c531659141344cd1fd0a4f28419497f9722a3daafe3b4186f6b6457e060405160405180910390a36000600a60006101000a81548173ffffffffffffffffffffffffffffffffffffffff021916908373ffffffffffffffffffffffffffffffffffffffff1602179055505b5b565b6000600a60009054906101000a900473ffffffffffffffffffffffffffffffffffffffff169050612484565b90565b606060076000508054600181600116156101000203166002900480601f0160208091040260200160405190810160405280929190818152602001828054600181600116156101000203166002900480156125225780601f106124f757610100808354040283529160200191612522565b820191906000526020600020905b81548152906001019060200180831161250557829003601f168201915b5050505050905061252e565b90565b60126000506020528060005260406000206000915090508054600181600116156101000203166002900480601f0160208091040260200160405190810160405280929190818152602001828054600181600116156101000203166002900480156125dc5780601f106125b1576101008083540402835291602001916125dc565b820191906000526020600020905b8154815290600101906020018083116125bf57829003601f168201915b505050505081565b6125f261347a63ffffffff16565b73ffffffffffffffffffffffffffffffffffffffff168273ffffffffffffffffffffffffffffffffffffffff1614151515612698576040517f08c379a00000000000000000000000000000000000000000000000000000000081526004018080602001828103825260198152602001807f4552433732313a20617070726f766520746f2063616c6c65720000000000000081526020015060200191505060405180910390fd5b80600560005060006126ae61347a63ffffffff16565b73ffffffffffffffffffffffffffffffffffffffff1673ffffffffffffffffffffffffffffffffffffffff16815260200190815260200160002060005060008473ffffffffffffffffffffffffffffffffffffffff1673ffffffffffffffffffffffffffffffffffffffff16815260200190815260200160002060006101000a81548160ff0219169083151502179055508173ffffffffffffffffffffffffffffffffffffffff1661276461347a63ffffffff16565b73ffffffffffffffffffffffffffffffffffffffff167f17307eab39ab6107e8899845ad3d59bd9653f200f220920489ca2b5937696c318360405180821515815260200191505060405180910390a35b5050565b600c6000505481565b6127de6127d261347a63ffffffff16565b8361356d63ffffffff16565b1515612835576040517f08c379a000000000000000000000000000000000000000000000000000000000815260040180806020018281038252603181526020018061513f6031913960400191505060405180910390fd5b61284784848484613b0f63ffffffff16565b5b50505050565b604681565b600581565b60606128698261345563ffffffff16565b15156128c0576040517f08c379a000000000000000000000000000000000000000000000000000000000815260040180806020018281038252602c815260200180614e6a602c913960400191505060405180910390fd5b6000601060005060008481526020019081526020016000206000505490506000601160005060008381526020019081526020016000206000508054600181600116156101000203166002900480601f01602080910402602001604051908101604052809291908181526020018280546001816001161561010002031660029004801561298d5780601f106129625761010080835404028352916020019161298d565b820191906000526020600020905b81548152906001019060200180831161297057829003601f168201915b505050505090506000601260005060008481526020019081526020016000206000508054600181600116156101000203166002900480601f016020809104026020016040519081016040528092919081815260200182805460018160011615610100020316600290048015612a435780601f10612a1857610100808354040283529160200191612a43565b820191906000526020600020905b815481529060010190602001808311612a2657829003601f168201915b50505050509050612a58613b9063ffffffff16565b612c24612a6961118263ffffffff16565b838560405160200180807f7b226e616d65223a22000000000000000000000000000000000000000000000081526020015060090184805190602001908083835b602083101515612acf57805182525b602082019150602081019050602083039250612aa9565b6001836020036101000a038019825116818451168082178552505050505050905001806151c560279139602701806151706031913960310183805190602001908083835b602083101515612b3957805182525b602082019150602081019050602083039250612b13565b6001836020036101000a038019825116818451168082178552505050505050905001807f7d5d2c2022696d616765223a2200000000000000000000000000000000000000815260200150600d0182805190602001908083835b602083101515612bb857805182525b602082019150602081019050602083039250612b92565b6001836020036101000a038019825116818451168082178552505050505050905001807f227d0000000000000000000000000000000000000000000000000000000000008152602001506002019350505050604051602081830303815290604052613bd563ffffffff16565b6040516020018083805190602001908083835b602083101515612c5d57805182525b602082019150602081019050602083039250612c37565b6001836020036101000a03801982511681845116808217855250505050505090500182805190602001908083835b602083101515612cb157805182525b602082019150602081019050602083039250612c8b565b6001836020036101000a038019825116818451168082178552505050505050905001925050506040516020818303038152906040529350505050612cf3565050505b919050565b601981565b60006000600090505b600b60005080549050811015612de7578273ffffffffffffffffffffffffffffffffffffffff16600b60005082815481101515612d3f57fe5b906000526020600020900160005b9054906101000a900473ffffffffffffffffffffffffffffffffffffffff1673ffffffffffffffffffffffffffffffffffffffff161415612dd957612dd06040518060400160405280601981526020017f466f756e6420706c6179657220617420696e6465783a2025640000000000000081526020015082613d3d63ffffffff16565b80915050612e59565b5b8080600101915050612d06565b506040517f08c379a000000000000000000000000000000000000000000000000000000000815260040180806020018281038252601e8152602001807f5075707079526166666c653a20506c61796572206e6f7420616374697665000081526020015060200191505060405180910390fd5b919050565b80517f00000000000000000000000000000000000000000000000000000000000000000234141515612edb576040517f08c379a000000000000000000000000000000000000000000000000000000000815260040180806020018281038252602d815260200180614e3d602d913960400191505060405180910390fd5b6000600090505b8151811015612f7657600b6000508282815181101515612efe57fe5b6020026020010151908060018154018082558091505060019003906000526020600020900160005b9091909190916101000a81548173ffffffffffffffffffffffffffffffffffffffff021916908373ffffffffffffffffffffffffffffffffffffffff1602179055505b8080600101915050612ee2565b506000600b6000508054905090506000600090505b600182038110156130e75760006001820190505b828110156130d857600b60005081815481101515612fb957fe5b906000526020600020900160005b9054906101000a900473ffffffffffffffffffffffffffffffffffffffff1673ffffffffffffffffffffffffffffffffffffffff16600b6000508381548110151561300e57fe5b906000526020600020900160005b9054906101000a900473ffffffffffffffffffffffffffffffffffffffff1673ffffffffffffffffffffffffffffffffffffffff16141515156130ca576040517f08c379a000000000000000000000000000000000000000000000000000000000815260040180806020018281038252601d8152602001807f5075707079526166666c653a204475706c696361746520706c6179657200000081526020015060200191505060405180910390fd5b5b8080600101915050612f9f565b505b8080600101915050612f8b565b507fb1c4333d548c772fcf6cf94ff4113aa3d3efcdbedd89953b15a30752b94e3582826040518080602001828103825283818151815260200191508051906020019060200280838360005b8381101561314e5780820151818401525b602081019050613132565b505050509050019250505060405180910390a1505b50565b6000600560005060008473ffffffffffffffffffffffffffffffffffffffff1673ffffffffffffffffffffffffffffffffffffffff16815260200190815260200160002060005060008373ffffffffffffffffffffffffffffffffffffffff1673ffffffffffffffffffffffffffffffffffffffff16815260200190815260200160002060009054906101000a900460ff1690506131ff565b92915050565b61321361347a63ffffffff16565b73ffffffffffffffffffffffffffffffffffffffff1661323761245863ffffffff16565b73ffffffffffffffffffffffffffffffffffffffff161415156132c5576040517f08c379a00000000000000000000000000000000000000000000000000000000081526004018080602001828103825260208152602001807f4f776e61626c653a2063616c6c6572206973206e6f7420746865206f776e657281526020015060200191505060405180910390fd5b600073ffffffffffffffffffffffffffffffffffffffff168173ffffffffffffffffffffffffffffffffffffffff161415151561334d576040517f08c379a0000000000000000000000000000000000000000000000000000000008152600401808060200182810382526026815260200180614e176026913960400191505060405180910390fd5b8073ffffffffffffffffffffffffffffffffffffffff16600a60009054906101000a900473ffffffffffffffffffffffffffffffffffffffff1673ffffffffffffffffffffffffffffffffffffffff167f8be0079c531659141344cd1fd0a4f28419497f9722a3daafe3b4186f6b6457e060405160405180910390a380600a60006101000a81548173ffffffffffffffffffffffffffffffffffffffff021916908373ffffffffffffffffffffffffffffffffffffffff1602179055505b5b50565b600b600050818154811061342257600080fd5b906000526020600020900160005b9150909054906101000a900473ffffffffffffffffffffffffffffffffffffffff1681565b600061346e826002600050613e4c90919063ffffffff16565b9050613475565b919050565b6000339050613484565b90565b816004600050600083815260200190815260200160002060006101000a81548173ffffffffffffffffffffffffffffffffffffffff021916908373ffffffffffffffffffffffffffffffffffffffff160217905550808273ffffffffffffffffffffffffffffffffffffffff16613503836120c263ffffffff16565b73ffffffffffffffffffffffffffffffffffffffff167f8c5be1e5ebec7d5bd14f71427d1e84f3dd0314c0f7b2291e5b200ac8c7c3b92560405160405180910390a45b5050565b600061356182600001600050613e7463ffffffff16565b9050613568565b919050565b600061357e8261345563ffffffff16565b15156135d5576040517f08c379a000000000000000000000000000000000000000000000000000000000815260040180806020018281038252602c815260200180614f1a602c913960400191505060405180910390fd5b60006135e6836120c263ffffffff16565b90508073ffffffffffffffffffffffffffffffffffffffff168473ffffffffffffffffffffffffffffffffffffffff16148061365b57508373ffffffffffffffffffffffffffffffffffffffff166136438461122c63ffffffff16565b73ffffffffffffffffffffffffffffffffffffffff16145b806136725750613671818561316663ffffffff16565b5b91505061367b56505b92915050565b8273ffffffffffffffffffffffffffffffffffffffff166136a7826120c263ffffffff16565b73ffffffffffffffffffffffffffffffffffffffff16141515613715576040517f08c379a00000000000000000000000000000000000000000000000000000000081526004018080602001828103825260298152602001806150c56029913960400191505060405180910390fd5b600073ffffffffffffffffffffffffffffffffffffffff168273ffffffffffffffffffffffffffffffffffffffff161415151561379d576040517f08c379a0000000000000000000000000000000000000000000000000000000008152600401808060200182810382526024815260200180614e966024913960400191505060405180910390fd5b6137ae838383613e8d63ffffffff16565b6137bf60008261348763ffffffff16565b61381681600160005060008673ffffffffffffffffffffffffffffffffffffffff1673ffffffffffffffffffffffffffffffffffffffff168152602001908152602001600020600050613e9390919063ffffffff16565b5061386e81600160005060008573ffffffffffffffffffffffffffffffffffffffff1673ffffffffffffffffffffffffffffffffffffffff168152602001908152602001600020600050613ebb90919063ffffffff16565b5061388881836002600050613ee39092919063ffffffff16565b50808273ffffffffffffffffffffffffffffffffffffffff168473ffffffffffffffffffffffffffffffffffffffff167fddf252ad1be2c89b69c2b068fc378daa952ba7f163c4a11628f55a4df523b3ef60405160405180910390a45b505050565b804710151515613965576040517f08c379a000000000000000000000000000000000000000000000000000000000815260040180806020018281038252601d8152602001807f416464726573733a20696e73756666696369656e742062616c616e636500000081526020015060200191505060405180910390fd5b60008273ffffffffffffffffffffffffffffffffffffffff1682604051808050600001905060006040518083038185875af1925050503d80600081146139c7576040519150601f19603f3d011682016040523d82523d6000602084013e6139cc565b606091505b50509050801515613a28576040517f08c379a000000000000000000000000000000000000000000000000000000000815260040180806020018281038252603a815260200180614eba603a913960400191505060405180910390fd5b505b5050565b6000613a468360000160005083613f2663ffffffff16565b60001c9050613a50565b92915050565b613a79828260405180602001604052806000815260200150613fbd63ffffffff16565b5b5050565b6000600060006000613a9c866000016000508661403d63ffffffff16565b915091508160001c8160001c809050935093505050613ab85650505b9250929050565b6000613adb846000016000508460001b846140f163ffffffff16565b60001c9050613ae5565b9392505050565b6000613b038260000160005061420b63ffffffff16565b9050613b0a565b919050565b613b2084848461368163ffffffff16565b613b328484848461422463ffffffff16565b1515613b89576040517f08c379a0000000000000000000000000000000000000000000000000000000008152600401808060200182810382526032815260200180614de56032913960400191505060405180910390fd5b5b50505050565b60606040518060400160405280601d81526020017f646174613a6170706c69636174696f6e2f6a736f6e3b6261736536342c0000008152602001509050613bd2565b90565b6060600082511415613bfb57604051806020016040528060008152602001509050613d38565b6000604051806060016040528060408152602001615001604091399050600060036002855101811515613c2a57fe5b04600402905060006020820167ffffffffffffffff81118015613c4d5760006000fd5b506040519080825280601f01601f191660200182016040528015613c805781602001600182028036833780820191505090505b509050818152600183018586518101602084015b81831015613cf0576003830192508251603f8160121c168501518253600182019150603f81600c1c168501518253600182019150603f8160061c168501518253600182019150603f81168501518253600182019150505b613c94565b600389510660018114613d0a5760028114613d1a57613d25565b613d3d60f01b6002830352613d25565b603d60f81b60018303525b5050505050809350505050613d38565050505b919050565b613e4782826040516024018080602001838152602001828103825284818151815260200191508051906020019080838360005b83811015613d8c5780820151818401525b602081019050613d70565b50505050905090810190601f168015613db95780820380516001836020036101000a031916815260200191505b5093505050506040516020818303038152906040527f9710a9d0000000000000000000000000000000000000000000000000000000007bffffffffffffffffffffffffffffffffffffffffffffffffffffffff19166020820180517bffffffffffffffffffffffffffffffffffffffffffffffffffffffff838183161783525050505061445563ffffffff16565b5b5050565b6000613e67836000016000508360001b61447663ffffffff16565b9050613e6e565b92915050565b600081600001600050805490509050613e88565b919050565b5b505050565b6000613eae836000016000508360001b6144ad63ffffffff16565b9050613eb5565b92915050565b6000613ed6836000016000508360001b6145f863ffffffff16565b9050613edd565b92915050565b6000613f18846000016000508460001b8473ffffffffffffffffffffffffffffffffffffffff1660001b61469763ffffffff16565b9050613f1f565b9392505050565b6000818360000160005080549050111515613f8c576040517f08c379a0000000000000000000000000000000000000000000000000000000008152600401808060200182810382526022815260200180614d786022913960400191505060405180910390fd5b8260000160005082815481101515613fa057fe5b906000526020600020900160005b50549050613fb7565b92915050565b613fcd83836147d263ffffffff16565b613fe0600084848461422463ffffffff16565b1515614037576040517f08c379a0000000000000000000000000000000000000000000000000000000008152600401808060200182810382526032815260200180614de56032913960400191505060405180910390fd5b5b505050565b600060008284600001600050805490501115156140a5576040517f08c379a00000000000000000000000000000000000000000000000000000000081526004018080602001828103825260228152602001806150416022913960400191505060405180910390fd5b600084600001600050848154811015156140bb57fe5b906000526020600020906002020160005b5090508060000160005054816001016000505492509250506140ea56505b9250929050565b6000600084600101600050600085600019166000191681526020019081526020016000206000505490506000811415839015156141ca576040517f08c379a00000000000000000000000000000000000000000000000000000000081526004018080602001828103825283818151815260200191508051906020019080838360005b8381101561418f5780820151818401525b602081019050614173565b50505050905090810190601f1680156141bc5780820380516001836020036101000a031916815260200191505b509250505060405180910390fd5b5084600001600050600182038154811015156141e257fe5b906000526020600020906002020160005b506001016000505491505061420456505b9392505050565b60008160000160005080549050905061421f565b919050565b600061424d8473ffffffffffffffffffffffffffffffffffffffff166149e6909063ffffffff16565b151561425c576001905061444d565b60006143cd63150b7a0260e01b61427761347a63ffffffff16565b888787604051602401808573ffffffffffffffffffffffffffffffffffffffff1681526020018473ffffffffffffffffffffffffffffffffffffffff16815260200183815260200180602001828103825283818151815260200191508051906020019080838360005b838110156142fc5780820151818401525b6020810190506142e0565b50505050905090810190601f1680156143295780820380516001836020036101000a031916815260200191505b5095505050505050604051602081830303815290604052907bffffffffffffffffffffffffffffffffffffffffffffffffffffffff19166020820180517bffffffffffffffffffffffffffffffffffffffffffffffffffffffff8381831617835250505050604051806060016040528060328152602001614de5603291398773ffffffffffffffffffffffffffffffffffffffff16614a009092919063ffffffff16565b905060008180602001905160208110156143e75760006000fd5b8101908080519060200190929190505050905063150b7a0260e01b7bffffffffffffffffffffffffffffffffffffffffffffffffffffffff1916817bffffffffffffffffffffffffffffffffffffffffffffffffffffffff1916149250505061444d5650505b949350505050565b6144728161446a614a23614a4e63ffffffff16565b63ffffffff16565b5b50565b60006000836001016000506000846000191660001916815260200190815260200160002060005054141590506144a7565b92915050565b6000600083600101600050600084600019166000191681526020019081526020016000206000505490506000811415156145e65760006001820390506000600186600001600050805490500390506000866000016000508281548110151561451157fe5b906000526020600020900160005b5054905080876000016000508481548110151561453857fe5b906000526020600020900160005b508190906000191690555060018301876001016000506000836000191660001916815260200190815260200160002060005081909090555086600001600050805480151561459057fe5b600190038181906000526020600020900160005b5060009055905586600101600050600087600019166000191681526020019081526020016000206000506000905560019450505050506145f2565050506145f0565b60009150506145f2565b505b92915050565b600061460a8383614a5a63ffffffff16565b1515614687578260000160005082908060018154018082558091505060019003906000526020600020900160005b9091909190915090600019169055826000016000508054905083600101600050600084600019166000191681526020019081526020016000206000508190909055506001905061469156614690565b60009050614691565b5b92915050565b600060008460010160005060008560001916600019168152602001908152602001600020600050549050600081141561478557846000016000506040518060400160405280866000191681526020018560001916815260200150908060018154018082558091505060019003906000526020600020906002020160005b90919091909150600082015181600001600050906000191690556020820151816001016000509060001916905550508460000160005080549050856001016000506000866000191660001916815260200190815260200160002060005081909090555060019150506147cb566147c9565b82856000016000506001830381548110151561479d57fe5b906000526020600020906002020160005b506001016000508190906000191690555060009150506147cb565b505b9392505050565b600073ffffffffffffffffffffffffffffffffffffffff168273ffffffffffffffffffffffffffffffffffffffff161415151561487a576040517f08c379a00000000000000000000000000000000000000000000000000000000081526004018080602001828103825260208152602001807f4552433732313a206d696e7420746f20746865207a65726f206164647265737381526020015060200191505060405180910390fd5b6148898161345563ffffffff16565b151515614901576040517f08c379a000000000000000000000000000000000000000000000000000000000815260040180806020018281038252601c8152602001807f4552433732313a20746f6b656e20616c7265616479206d696e7465640000000081526020015060200191505060405180910390fd5b61491360008383613e8d63ffffffff16565b61496a81600160005060008573ffffffffffffffffffffffffffffffffffffffff1673ffffffffffffffffffffffffffffffffffffffff168152602001908152602001600020600050613ebb90919063ffffffff16565b5061498481836002600050613ee39092919063ffffffff16565b50808273ffffffffffffffffffffffffffffffffffffffff16600073ffffffffffffffffffffffffffffffffffffffff167fddf252ad1be2c89b69c2b068fc378daa952ba7f163c4a11628f55a4df523b3ef60405160405180910390a45b5050565b60006000823b9050600081119150506149fb56505b919050565b6060614a158484600085614a9163ffffffff16565b9050614a1c565b9392505050565b60008151905060006a636f6e736f6c652e6c6f67905060208301600060008483855afa505050505b50565b614d518190505b919050565b6000600083600101600050600084600019166000191681526020019081526020016000206000505414159050614a8b565b92915050565b6060824710151515614aee576040517f08c379a0000000000000000000000000000000000000000000000000000000008152600401808060200182810382526026815260200180614ef46026913960400191505060405180910390fd5b614afd856149e663ffffffff16565b1515614b74576040517f08c379a000000000000000000000000000000000000000000000000000000000815260040180806020018281038252601d8152602001807f416464726573733a2063616c6c20746f206e6f6e2d636f6e747261637400000081526020015060200191505060405180910390fd5b600060008673ffffffffffffffffffffffffffffffffffffffff1685876040518082805190602001908083835b602083101515614bc757805182525b602082019150602081019050602083039250614ba1565b6001836020036101000a03801982511681845116808217855250505050505090500191505060006040518083038185875af1925050503d8060008114614c29576040519150601f19603f3d011682016040523d82523d6000602084013e614c2e565b606091505b5091509150614c44828286614c5763ffffffff16565b92505050614c4f5650505b949350505050565b60608315614c6b57829050614d2856614d27565b600083511115614c835782518084602001fd50614d26565b816040517f08c379a00000000000000000000000000000000000000000000000000000000081526004018080602001828103825283818151815260200191508051906020019080838360005b83811015614ceb5780820151818401525b602081019050614ccf565b50505050905090810190601f168015614d185780820380516001836020036101000a031916815260200191505b509250505060405180910390fd5b5b5b9392505050565b5080546000825590600052602060002090810190614d4d9190614d54565b5b50565bfe565b614d59565b80821115614d735760008181506000905550600101614d59565b509056fe456e756d657261626c655365743a20696e646578206f7574206f6620626f756e64735075707079526166666c653a204661696c656420746f20776974686472617720666565735075707079526166666c653a204f6e6c792074686520706c617965722063616e20726566756e644552433732313a207472616e7366657220746f206e6f6e20455243373231526563656976657220696d706c656d656e7465724f776e61626c653a206e6577206f776e657220697320746865207a65726f20616464726573735075707079526166666c653a204d7573742073656e6420656e6f75676820746f20656e74657220726166666c655075707079526166666c653a2055524920717565727920666f72206e6f6e6578697374656e7420746f6b656e4552433732313a207472616e7366657220746f20746865207a65726f2061646472657373416464726573733a20756e61626c6520746f2073656e642076616c75652c20726563697069656e74206d61792068617665207265766572746564416464726573733a20696e73756666696369656e742062616c616e636520666f722063616c6c4552433732313a206f70657261746f7220717565727920666f72206e6f6e6578697374656e7420746f6b656e4552433732313a20617070726f76652063616c6c6572206973206e6f74206f776e6572206e6f7220617070726f76656420666f7220616c6c4552433732313a2062616c616e636520717565727920666f7220746865207a65726f20616464726573734552433732313a206f776e657220717565727920666f72206e6f6e6578697374656e7420746f6b656e5075707079526166666c653a205468657265206172652063757272656e746c7920706c617965727320616374697665214142434445464748494a4b4c4d4e4f505152535455565758595a6162636465666768696a6b6c6d6e6f707172737475767778797a303132333435363738392b2f456e756d657261626c654d61703a20696e646578206f7574206f6620626f756e64734552433732313a20617070726f76656420717565727920666f72206e6f6e6578697374656e7420746f6b656e5075707079526166666c653a20506c6179657220616c726561647920726566756e6465642c206f72206973206e6f74206163746976654552433732313a207472616e73666572206f6620746f6b656e2074686174206973206e6f74206f776e4552433732313a20617070726f76616c20746f2063757272656e74206f776e65725075707079526166666c653a204661696c656420746f2073656e64207072697a6520706f6f6c20746f2077696e6e65724552433732313a207472616e736665722063616c6c6572206973206e6f74206f776e6572206e6f7220617070726f7665642261747472696275746573223a205b7b2274726169745f74797065223a2022726172697479222c202276616c7565223a205075707079526166666c653a204e656564206174206c65617374203420706c6179657273222c20226465736372697074696f6e223a22416e2061646f7261626c6520707570707921222c20a26469706673582212203523eae3d35a81c230aa9d5ffcefd6e92f07cce066095bc975f5ba5814ae443b64736f6c63430007060033697066733a2f2f516d597836477359414b6e4e7a5a3941364e76454b56396e66315661447a4a727144523233593859536b65624c55697066733a2f2f516d5373595278334c7044416231475a516d377a5a314175485a6a6662506b44364a3773397234317875316d6638697066733a2f2f516d55506a41444647454b6d666f686454614e635768703756476b323668356a5844413776335674546e544c6357","linkReferences":{}},"methodIdentifiers":{"COMMON_RARITY()":"bd71a521","LEGENDARY_RARITY()":"bd7c40c7","RARE_RARITY()":"db2c0b91","approve(address,uint256)":"095ea7b3","balanceOf(address)":"70a08231","baseURI()":"6c0360eb","changeFeeAddress(address)":"285e1406","enterRaffle(address[])":"e1a0f7e7","entranceFee()":"649677e1","feeAddress()":"41275358","getActivePlayerIndex(address)":"db2cea75","getApproved(uint256)":"081812fc","isApprovedForAll(address,address)":"e985e9c5","name()":"06fdde03","owner()":"8da5cb5b","ownerOf(uint256)":"6352211e","players(uint256)":"f71d96cb","previousWinner()":"5c6059ee","raffleDuration()":"b2f8846b","raffleStartTime()":"3be539ee","rarityToName(uint256)":"970c76e1","rarityToUri(uint256)":"4a038beb","refund(uint256)":"278ecde1","renounceOwnership()":"715018a6","safeTransferFrom(address,address,uint256)":"42842e0e","safeTransferFrom(address,address,uint256,bytes)":"b88d4fde","selectWinner()":"33a99e04","setApprovalForAll(address,bool)":"a22cb465","supportsInterface(bytes4)":"01ffc9a7","symbol()":"95d89b41","tokenByIndex(uint256)":"4f6ccce7","tokenIdToRarity(uint256)":"6be88980","tokenOfOwnerByIndex(address,uint256)":"2f745c59","tokenURI(uint256)":"c87b56dd","totalFees()":"13114a9d","totalSupply()":"18160ddd","transferFrom(address,address,uint256)":"23b872dd","transferOwnership(address)":"f2fde38b","withdrawFees()":"476343ee"},"id":40}